{
  "_format": "hh-sol-artifact-1",
  "contractName": "VotingSystem",
  "sourceName": "contracts/VotingSystem.sol",
  "abi": [
    {
      "inputs": [],
      "stateMutability": "nonpayable",
      "type": "constructor"
    },
    {
      "inputs": [
        {
          "internalType": "address",
          "name": "sender",
          "type": "address"
        },
        {
          "internalType": "uint256",
          "name": "tokenId",
          "type": "uint256"
        },
        {
          "internalType": "address",
          "name": "owner",
          "type": "address"
        }
      ],
      "name": "ERC721IncorrectOwner",
      "type": "error"
    },
    {
      "inputs": [
        {
          "internalType": "address",
          "name": "operator",
          "type": "address"
        },
        {
          "internalType": "uint256",
          "name": "tokenId",
          "type": "uint256"
        }
      ],
      "name": "ERC721InsufficientApproval",
      "type": "error"
    },
    {
      "inputs": [
        {
          "internalType": "address",
          "name": "approver",
          "type": "address"
        }
      ],
      "name": "ERC721InvalidApprover",
      "type": "error"
    },
    {
      "inputs": [
        {
          "internalType": "address",
          "name": "operator",
          "type": "address"
        }
      ],
      "name": "ERC721InvalidOperator",
      "type": "error"
    },
    {
      "inputs": [
        {
          "internalType": "address",
          "name": "owner",
          "type": "address"
        }
      ],
      "name": "ERC721InvalidOwner",
      "type": "error"
    },
    {
      "inputs": [
        {
          "internalType": "address",
          "name": "receiver",
          "type": "address"
        }
      ],
      "name": "ERC721InvalidReceiver",
      "type": "error"
    },
    {
      "inputs": [
        {
          "internalType": "address",
          "name": "sender",
          "type": "address"
        }
      ],
      "name": "ERC721InvalidSender",
      "type": "error"
    },
    {
      "inputs": [
        {
          "internalType": "uint256",
          "name": "tokenId",
          "type": "uint256"
        }
      ],
      "name": "ERC721NonexistentToken",
      "type": "error"
    },
    {
      "inputs": [
        {
          "internalType": "address",
          "name": "owner",
          "type": "address"
        }
      ],
      "name": "OwnableInvalidOwner",
      "type": "error"
    },
    {
      "inputs": [
        {
          "internalType": "address",
          "name": "account",
          "type": "address"
        }
      ],
      "name": "OwnableUnauthorizedAccount",
      "type": "error"
    },
    {
      "anonymous": false,
      "inputs": [
        {
          "indexed": true,
          "internalType": "address",
          "name": "owner",
          "type": "address"
        },
        {
          "indexed": true,
          "internalType": "address",
          "name": "approved",
          "type": "address"
        },
        {
          "indexed": true,
          "internalType": "uint256",
          "name": "tokenId",
          "type": "uint256"
        }
      ],
      "name": "Approval",
      "type": "event"
    },
    {
      "anonymous": false,
      "inputs": [
        {
          "indexed": true,
          "internalType": "address",
          "name": "owner",
          "type": "address"
        },
        {
          "indexed": true,
          "internalType": "address",
          "name": "operator",
          "type": "address"
        },
        {
          "indexed": false,
          "internalType": "bool",
          "name": "approved",
          "type": "bool"
        }
      ],
      "name": "ApprovalForAll",
      "type": "event"
    },
    {
      "anonymous": false,
      "inputs": [
        {
          "indexed": true,
          "internalType": "uint256",
          "name": "sessionId",
          "type": "uint256"
        },
        {
          "indexed": true,
          "internalType": "uint256",
          "name": "candidateId",
          "type": "uint256"
        },
        {
          "indexed": false,
          "internalType": "string",
          "name": "name",
          "type": "string"
        }
      ],
      "name": "CandidateAdded",
      "type": "event"
    },
    {
      "anonymous": false,
      "inputs": [
        {
          "indexed": true,
          "internalType": "address",
          "name": "previousOwner",
          "type": "address"
        },
        {
          "indexed": true,
          "internalType": "address",
          "name": "newOwner",
          "type": "address"
        }
      ],
      "name": "OwnershipTransferred",
      "type": "event"
    },
    {
      "anonymous": false,
      "inputs": [
        {
          "indexed": true,
          "internalType": "uint256",
          "name": "sessionId",
          "type": "uint256"
        },
        {
          "indexed": false,
          "internalType": "uint256",
          "name": "voterCount",
          "type": "uint256"
        }
      ],
      "name": "SessionAllowedVotersUpdated",
      "type": "event"
    },
    {
      "anonymous": false,
      "inputs": [
        {
          "indexed": true,
          "internalType": "uint256",
          "name": "sessionId",
          "type": "uint256"
        },
        {
          "indexed": false,
          "internalType": "string",
          "name": "name",
          "type": "string"
        },
        {
          "indexed": false,
          "internalType": "uint256",
          "name": "startTime",
          "type": "uint256"
        },
        {
          "indexed": false,
          "internalType": "uint256",
          "name": "endTime",
          "type": "uint256"
        }
      ],
      "name": "SessionCreated",
      "type": "event"
    },
    {
      "anonymous": false,
      "inputs": [
        {
          "indexed": true,
          "internalType": "uint256",
          "name": "sessionId",
          "type": "uint256"
        },
        {
          "indexed": false,
          "internalType": "bool",
          "name": "isActive",
          "type": "bool"
        }
      ],
      "name": "SessionStatusChanged",
      "type": "event"
    },
    {
      "anonymous": false,
      "inputs": [
        {
          "indexed": true,
          "internalType": "address",
          "name": "from",
          "type": "address"
        },
        {
          "indexed": true,
          "internalType": "address",
          "name": "to",
          "type": "address"
        },
        {
          "indexed": true,
          "internalType": "uint256",
          "name": "tokenId",
          "type": "uint256"
        }
      ],
      "name": "Transfer",
      "type": "event"
    },
    {
      "anonymous": false,
      "inputs": [
        {
          "indexed": true,
          "internalType": "uint256",
          "name": "sessionId",
          "type": "uint256"
        },
        {
          "indexed": true,
          "internalType": "address",
          "name": "voter",
          "type": "address"
        },
        {
          "indexed": true,
          "internalType": "uint256",
          "name": "candidateId",
          "type": "uint256"
        }
      ],
      "name": "Voted",
      "type": "event"
    },
    {
      "inputs": [
        {
          "internalType": "uint256",
          "name": "_sessionId",
          "type": "uint256"
        },
        {
          "internalType": "string",
          "name": "_name",
          "type": "string"
        }
      ],
      "name": "addCandidate",
      "outputs": [],
      "stateMutability": "nonpayable",
      "type": "function"
    },
    {
      "inputs": [
        {
          "internalType": "address",
          "name": "to",
          "type": "address"
        },
        {
          "internalType": "uint256",
          "name": "tokenId",
          "type": "uint256"
        }
      ],
      "name": "approve",
      "outputs": [],
      "stateMutability": "nonpayable",
      "type": "function"
    },
    {
      "inputs": [
        {
          "internalType": "address",
          "name": "owner",
          "type": "address"
        }
      ],
      "name": "balanceOf",
      "outputs": [
        {
          "internalType": "uint256",
          "name": "",
          "type": "uint256"
        }
      ],
      "stateMutability": "view",
      "type": "function"
    },
    {
      "inputs": [
        {
          "internalType": "uint256",
          "name": "_sessionId",
          "type": "uint256"
        },
        {
          "internalType": "address",
          "name": "_user",
          "type": "address"
        }
      ],
      "name": "checkUserVoted",
      "outputs": [
        {
          "internalType": "bool",
          "name": "",
          "type": "bool"
        }
      ],
      "stateMutability": "view",
      "type": "function"
    },
    {
      "inputs": [
        {
          "internalType": "string",
          "name": "_name",
          "type": "string"
        },
        {
          "internalType": "string",
          "name": "_description",
          "type": "string"
        },
        {
          "internalType": "uint256",
          "name": "_startTime",
          "type": "uint256"
        },
        {
          "internalType": "uint256",
          "name": "_endTime",
          "type": "uint256"
        }
      ],
      "name": "createSession",
      "outputs": [],
      "stateMutability": "nonpayable",
      "type": "function"
    },
    {
      "inputs": [],
      "name": "getAllSessions",
      "outputs": [
        {
          "components": [
            {
              "internalType": "uint256",
              "name": "id",
              "type": "uint256"
            },
            {
              "internalType": "string",
              "name": "name",
              "type": "string"
            },
            {
              "internalType": "string",
              "name": "description",
              "type": "string"
            },
            {
              "internalType": "uint256",
              "name": "startTime",
              "type": "uint256"
            },
            {
              "internalType": "uint256",
              "name": "endTime",
              "type": "uint256"
            },
            {
              "internalType": "bool",
              "name": "isActive",
              "type": "bool"
            }
          ],
          "internalType": "struct VotingSystem.Session[]",
          "name": "",
          "type": "tuple[]"
        }
      ],
      "stateMutability": "view",
      "type": "function"
    },
    {
      "inputs": [
        {
          "internalType": "uint256",
          "name": "tokenId",
          "type": "uint256"
        }
      ],
      "name": "getApproved",
      "outputs": [
        {
          "internalType": "address",
          "name": "",
          "type": "address"
        }
      ],
      "stateMutability": "view",
      "type": "function"
    },
    {
      "inputs": [
        {
          "internalType": "uint256",
          "name": "_sessionId",
          "type": "uint256"
        }
      ],
      "name": "getCandidates",
      "outputs": [
        {
          "components": [
            {
              "internalType": "uint256",
              "name": "id",
              "type": "uint256"
            },
            {
              "internalType": "string",
              "name": "name",
              "type": "string"
            },
            {
              "internalType": "uint256",
              "name": "voteCount",
              "type": "uint256"
            }
          ],
          "internalType": "struct VotingSystem.Candidate[]",
          "name": "",
          "type": "tuple[]"
        }
      ],
      "stateMutability": "view",
      "type": "function"
    },
    {
      "inputs": [
        {
          "internalType": "uint256",
          "name": "_sessionId",
          "type": "uint256"
        }
      ],
      "name": "getSessionAllowedVoters",
      "outputs": [
        {
          "internalType": "address[]",
          "name": "",
          "type": "address[]"
        }
      ],
      "stateMutability": "view",
      "type": "function"
    },
    {
      "inputs": [
        {
          "internalType": "address",
          "name": "_user",
          "type": "address"
        }
      ],
      "name": "getUserHistory",
      "outputs": [
        {
          "components": [
            {
              "internalType": "uint256",
              "name": "sessionId",
              "type": "uint256"
            },
            {
              "internalType": "uint256",
              "name": "candidateId",
              "type": "uint256"
            },
            {
              "internalType": "uint256",
              "name": "timestamp",
              "type": "uint256"
            }
          ],
          "internalType": "struct VotingSystem.VoteRecord[]",
          "name": "",
          "type": "tuple[]"
        }
      ],
      "stateMutability": "view",
      "type": "function"
    },
    {
      "inputs": [
        {
          "internalType": "uint256",
          "name": "",
          "type": "uint256"
        },
        {
          "internalType": "address",
          "name": "",
          "type": "address"
        }
      ],
      "name": "hasVotedInSession",
      "outputs": [
        {
          "internalType": "bool",
          "name": "",
          "type": "bool"
        }
      ],
      "stateMutability": "view",
      "type": "function"
    },
    {
      "inputs": [
        {
          "internalType": "address",
          "name": "owner",
          "type": "address"
        },
        {
          "internalType": "address",
          "name": "operator",
          "type": "address"
        }
      ],
      "name": "isApprovedForAll",
      "outputs": [
        {
          "internalType": "bool",
          "name": "",
          "type": "bool"
        }
      ],
      "stateMutability": "view",
      "type": "function"
    },
    {
      "inputs": [
        {
          "internalType": "uint256",
          "name": "_sessionId",
          "type": "uint256"
        },
        {
          "internalType": "address",
          "name": "_voter",
          "type": "address"
        }
      ],
      "name": "isEligibleForSession",
      "outputs": [
        {
          "internalType": "bool",
          "name": "",
          "type": "bool"
        }
      ],
      "stateMutability": "view",
      "type": "function"
    },
    {
      "inputs": [
        {
          "internalType": "uint256",
          "name": "",
          "type": "uint256"
        },
        {
          "internalType": "address",
          "name": "",
          "type": "address"
        }
      ],
      "name": "isSessionVoterAllowed",
      "outputs": [
        {
          "internalType": "bool",
          "name": "",
          "type": "bool"
        }
      ],
      "stateMutability": "view",
      "type": "function"
    },
    {
      "inputs": [
        {
          "internalType": "address",
          "name": "to",
          "type": "address"
        },
        {
          "internalType": "string",
          "name": "_studentId",
          "type": "string"
        }
      ],
      "name": "mint",
      "outputs": [],
      "stateMutability": "nonpayable",
      "type": "function"
    },
    {
      "inputs": [],
      "name": "name",
      "outputs": [
        {
          "internalType": "string",
          "name": "",
          "type": "string"
        }
      ],
      "stateMutability": "view",
      "type": "function"
    },
    {
      "inputs": [],
      "name": "nextTokenId",
      "outputs": [
        {
          "internalType": "uint256",
          "name": "",
          "type": "uint256"
        }
      ],
      "stateMutability": "view",
      "type": "function"
    },
    {
      "inputs": [],
      "name": "owner",
      "outputs": [
        {
          "internalType": "address",
          "name": "",
          "type": "address"
        }
      ],
      "stateMutability": "view",
      "type": "function"
    },
    {
      "inputs": [
        {
          "internalType": "uint256",
          "name": "tokenId",
          "type": "uint256"
        }
      ],
      "name": "ownerOf",
      "outputs": [
        {
          "internalType": "address",
          "name": "",
          "type": "address"
        }
      ],
      "stateMutability": "view",
      "type": "function"
    },
    {
      "inputs": [],
      "name": "renounceOwnership",
      "outputs": [],
      "stateMutability": "nonpayable",
      "type": "function"
    },
    {
      "inputs": [
        {
          "internalType": "address",
          "name": "from",
          "type": "address"
        },
        {
          "internalType": "address",
          "name": "to",
          "type": "address"
        },
        {
          "internalType": "uint256",
          "name": "tokenId",
          "type": "uint256"
        }
      ],
      "name": "safeTransferFrom",
      "outputs": [],
      "stateMutability": "nonpayable",
      "type": "function"
    },
    {
      "inputs": [
        {
          "internalType": "address",
          "name": "from",
          "type": "address"
        },
        {
          "internalType": "address",
          "name": "to",
          "type": "address"
        },
        {
          "internalType": "uint256",
          "name": "tokenId",
          "type": "uint256"
        },
        {
          "internalType": "bytes",
          "name": "data",
          "type": "bytes"
        }
      ],
      "name": "safeTransferFrom",
      "outputs": [],
      "stateMutability": "nonpayable",
      "type": "function"
    },
    {
      "inputs": [
        {
          "internalType": "uint256",
          "name": "",
          "type": "uint256"
        },
        {
          "internalType": "uint256",
          "name": "",
          "type": "uint256"
        }
      ],
      "name": "sessionCandidates",
      "outputs": [
        {
          "internalType": "uint256",
          "name": "id",
          "type": "uint256"
        },
        {
          "internalType": "string",
          "name": "name",
          "type": "string"
        },
        {
          "internalType": "uint256",
          "name": "voteCount",
          "type": "uint256"
        }
      ],
      "stateMutability": "view",
      "type": "function"
    },
    {
      "inputs": [
        {
          "internalType": "uint256",
          "name": "",
          "type": "uint256"
        }
      ],
      "name": "sessions",
      "outputs": [
        {
          "internalType": "uint256",
          "name": "id",
          "type": "uint256"
        },
        {
          "internalType": "string",
          "name": "name",
          "type": "string"
        },
        {
          "internalType": "string",
          "name": "description",
          "type": "string"
        },
        {
          "internalType": "uint256",
          "name": "startTime",
          "type": "uint256"
        },
        {
          "internalType": "uint256",
          "name": "endTime",
          "type": "uint256"
        },
        {
          "internalType": "bool",
          "name": "isActive",
          "type": "bool"
        }
      ],
      "stateMutability": "view",
      "type": "function"
    },
    {
      "inputs": [],
      "name": "sessionsCount",
      "outputs": [
        {
          "internalType": "uint256",
          "name": "",
          "type": "uint256"
        }
      ],
      "stateMutability": "view",
      "type": "function"
    },
    {
      "inputs": [
        {
          "internalType": "address",
          "name": "operator",
          "type": "address"
        },
        {
          "internalType": "bool",
          "name": "approved",
          "type": "bool"
        }
      ],
      "name": "setApprovalForAll",
      "outputs": [],
      "stateMutability": "nonpayable",
      "type": "function"
    },
    {
      "inputs": [
        {
          "internalType": "uint256",
          "name": "_sessionId",
          "type": "uint256"
        },
        {
          "internalType": "address[]",
          "name": "_voters",
          "type": "address[]"
        }
      ],
      "name": "setSessionAllowedVoters",
      "outputs": [],
      "stateMutability": "nonpayable",
      "type": "function"
    },
    {
      "inputs": [
        {
          "internalType": "uint256",
          "name": "_sessionId",
          "type": "uint256"
        },
        {
          "internalType": "bool",
          "name": "_isActive",
          "type": "bool"
        }
      ],
      "name": "setSessionStatus",
      "outputs": [],
      "stateMutability": "nonpayable",
      "type": "function"
    },
    {
      "inputs": [
        {
          "internalType": "uint256",
          "name": "",
          "type": "uint256"
        }
      ],
      "name": "studentIds",
      "outputs": [
        {
          "internalType": "string",
          "name": "",
          "type": "string"
        }
      ],
      "stateMutability": "view",
      "type": "function"
    },
    {
      "inputs": [
        {
          "internalType": "bytes4",
          "name": "interfaceId",
          "type": "bytes4"
        }
      ],
      "name": "supportsInterface",
      "outputs": [
        {
          "internalType": "bool",
          "name": "",
          "type": "bool"
        }
      ],
      "stateMutability": "view",
      "type": "function"
    },
    {
      "inputs": [],
      "name": "symbol",
      "outputs": [
        {
          "internalType": "string",
          "name": "",
          "type": "string"
        }
      ],
      "stateMutability": "view",
      "type": "function"
    },
    {
      "inputs": [
        {
          "internalType": "uint256",
          "name": "tokenId",
          "type": "uint256"
        }
      ],
      "name": "tokenURI",
      "outputs": [
        {
          "internalType": "string",
          "name": "",
          "type": "string"
        }
      ],
      "stateMutability": "view",
      "type": "function"
    },
    {
      "inputs": [
        {
          "internalType": "address",
          "name": "from",
          "type": "address"
        },
        {
          "internalType": "address",
          "name": "to",
          "type": "address"
        },
        {
          "internalType": "uint256",
          "name": "tokenId",
          "type": "uint256"
        }
      ],
      "name": "transferFrom",
      "outputs": [],
      "stateMutability": "nonpayable",
      "type": "function"
    },
    {
      "inputs": [
        {
          "internalType": "address",
          "name": "newOwner",
          "type": "address"
        }
      ],
      "name": "transferOwnership",
      "outputs": [],
      "stateMutability": "nonpayable",
      "type": "function"
    },
    {
      "inputs": [
        {
          "internalType": "address",
          "name": "",
          "type": "address"
        },
        {
          "internalType": "uint256",
          "name": "",
          "type": "uint256"
        }
      ],
      "name": "userVoteHistory",
      "outputs": [
        {
          "internalType": "uint256",
          "name": "sessionId",
          "type": "uint256"
        },
        {
          "internalType": "uint256",
          "name": "candidateId",
          "type": "uint256"
        },
        {
          "internalType": "uint256",
          "name": "timestamp",
          "type": "uint256"
        }
      ],
      "stateMutability": "view",
      "type": "function"
    },
    {
      "inputs": [
        {
          "internalType": "uint256",
          "name": "_sessionId",
          "type": "uint256"
        },
        {
          "internalType": "uint256",
          "name": "_candidateId",
          "type": "uint256"
        }
      ],
      "name": "vote",
      "outputs": [],
      "stateMutability": "nonpayable",
      "type": "function"
    }
  ],
  "bytecode": "0x608060405234801561001057600080fd5b50336040518060400160405280600f81526020017f53747564656e744964656e7469747900000000000000000000000000000000008152506040518060400160405280600381526020017f5354550000000000000000000000000000000000000000000000000000000000815250816000908161008d919061043d565b50806001908161009d919061043d565b505050600073ffffffffffffffffffffffffffffffffffffffff168173ffffffffffffffffffffffffffffffffffffffff16036101125760006040517f1e4fbdf70000000000000000000000000000000000000000000000000000000081526004016101099190610550565b60405180910390fd5b6101218161012760201b60201c565b5061056b565b6000600660009054906101000a900473ffffffffffffffffffffffffffffffffffffffff16905081600660006101000a81548173ffffffffffffffffffffffffffffffffffffffff021916908373ffffffffffffffffffffffffffffffffffffffff1602179055508173ffffffffffffffffffffffffffffffffffffffff168173ffffffffffffffffffffffffffffffffffffffff167f8be0079c531659141344cd1fd0a4f28419497f9722a3daafe3b4186f6b6457e060405160405180910390a35050565b600081519050919050565b7f4e487b7100000000000000000000000000000000000000000000000000000000600052604160045260246000fd5b7f4e487b7100000000000000000000000000000000000000000000000000000000600052602260045260246000fd5b6000600282049050600182168061026e57607f821691505b60208210810361028157610280610227565b5b50919050565b60008190508160005260206000209050919050565b60006020601f8301049050919050565b600082821b905092915050565b6000600883026102e97fffffffffffffffffffffffffffffffffffffffffffffffffffffffffffffffff826102ac565b6102f386836102ac565b95508019841693508086168417925050509392505050565b6000819050919050565b6000819050919050565b600061033a6103356103308461030b565b610315565b61030b565b9050919050565b6000819050919050565b6103548361031f565b61036861036082610341565b8484546102b9565b825550505050565b600090565b61037d610370565b61038881848461034b565b505050565b5b818110156103ac576103a1600082610375565b60018101905061038e565b5050565b601f8211156103f1576103c281610287565b6103cb8461029c565b810160208510156103da578190505b6103ee6103e68561029c565b83018261038d565b50505b505050565b600082821c905092915050565b6000610414600019846008026103f6565b1980831691505092915050565b600061042d8383610403565b9150826002028217905092915050565b610446826101ed565b67ffffffffffffffff81111561045f5761045e6101f8565b5b6104698254610256565b6104748282856103b0565b600060209050601f8311600181146104a75760008415610495578287015190505b61049f8582610421565b865550610507565b601f1984166104b586610287565b60005b828110156104dd578489015182556001820191506020850194506020810190506104b8565b868310156104fa57848901516104f6601f891682610403565b8355505b6001600288020188555050505b505050505050565b600073ffffffffffffffffffffffffffffffffffffffff82169050919050565b600061053a8261050f565b9050919050565b61054a8161052f565b82525050565b60006020820190506105656000830184610541565b92915050565b6152f18061057a6000396000f3fe608060405234801561001057600080fd5b506004361061021c5760003560e01c806375794a3c11610125578063a80e6e38116100ad578063c87b56dd1161007c578063c87b56dd146106a0578063d0def521146106d0578063d2bd5bb7146106ec578063e985e9c51461071c578063f2fde38b1461074c5761021c565b8063a80e6e3814610606578063b384abef14610638578063b410ca7814610654578063b88d4fde146106845761021c565b80638da5cb5b116100f45780638da5cb5b1461056257806395d89b41146105805780639ab8f8fc1461059e578063a22cb465146105ce578063a5bdf4e4146105ea5761021c565b806375794a3c146104ad57806378548399146104cb5780637d6ba55d146104fb57806383c4b7a31461052d5761021c565b8063414c2c49116101a857806354ca06b41161017757806354ca06b4146103f55780636352211e146104135780636f28c3551461044357806370a0823114610473578063715018a6146104a35761021c565b8063414c2c491461037157806342842e0e1461038d5780634ab0a898146103a95780634fb3d3b1146103c55761021c565b8063095ea7b3116101ef578063095ea7b3146102cf5780631750a3d0146102eb57806323b872dd14610307578063312f6307146103235780633e39a7a5146103415761021c565b806301ffc9a71461022157806306fdde0314610251578063081812fc1461026f5780630819ad5c1461029f575b600080fd5b61023b6004803603810190610236919061346b565b610768565b60405161024891906134b3565b60405180910390f35b61025961084a565b604051610266919061355e565b60405180910390f35b610289600480360381019061028491906135b6565b6108dc565b6040516102969190613624565b60405180910390f35b6102b960048036038101906102b491906135b6565b6108f8565b6040516102c691906136fd565b60405180910390f35b6102e960048036038101906102e4919061374b565b6109ea565b005b610305600480360381019061030091906138c0565b610a00565b005b610321600480360381019061031c919061391c565b610ba5565b005b61032b610ca7565b604051610338919061397e565b60405180910390f35b61035b600480360381019061035691906135b6565b610cad565b6040516103689190613b04565b60405180910390f35b61038b60048036038101906103869190613b52565b610dc5565b005b6103a760048036038101906103a2919061391c565b610e88565b005b6103c360048036038101906103be9190613c5a565b610ea8565b005b6103df60048036038101906103da9190613cb6565b611236565b6040516103ec9190613dd4565b60405180910390f35b6103fd6112f2565b60405161040a9190613f57565b60405180910390f35b61042d600480360381019061042891906135b6565b61151e565b60405161043a9190613624565b60405180910390f35b61045d600480360381019061045891906135b6565b611530565b60405161046a919061355e565b60405180910390f35b61048d60048036038101906104889190613cb6565b6115d0565b60405161049a919061397e565b60405180910390f35b6104ab61168a565b005b6104b561169e565b6040516104c2919061397e565b60405180910390f35b6104e560048036038101906104e09190613f79565b6116a4565b6040516104f291906134b3565b60405180910390f35b61051560048036038101906105109190613fb9565b61170c565b60405161052493929190613ff9565b60405180910390f35b610547600480360381019061054291906135b6565b6117db565b60405161055996959493929190614037565b60405180910390f35b61056a611934565b6040516105779190613624565b60405180910390f35b61058861195e565b604051610595919061355e565b60405180910390f35b6105b860048036038101906105b39190613f79565b6119f0565b6040516105c591906134b3565b60405180910390f35b6105e860048036038101906105e391906140a6565b611a1f565b005b61060460048036038101906105ff91906140e6565b611a35565b005b610620600480360381019061061b919061374b565b611b4d565b60405161062f93929190614185565b60405180910390f35b610652600480360381019061064d9190613fb9565b611b94565b005b61066e60048036038101906106699190613f79565b612020565b60405161067b91906134b3565b60405180910390f35b61069e6004803603810190610699919061425d565b612100565b005b6106ba60048036038101906106b591906135b6565b612125565b6040516106c7919061355e565b60405180910390f35b6106ea60048036038101906106e591906142e0565b61222a565b005b61070660048036038101906107019190613f79565b612320565b60405161071391906134b3565b60405180910390f35b6107366004803603810190610731919061433c565b61234f565b60405161074391906134b3565b60405180910390f35b61076660048036038101906107619190613cb6565b6123e3565b005b60007f80ac58cd000000000000000000000000000000000000000000000000000000007bffffffffffffffffffffffffffffffffffffffffffffffffffffffff1916827bffffffffffffffffffffffffffffffffffffffffffffffffffffffff1916148061083357507f5b5e139f000000000000000000000000000000000000000000000000000000007bffffffffffffffffffffffffffffffffffffffffffffffffffffffff1916827bffffffffffffffffffffffffffffffffffffffffffffffffffffffff1916145b80610843575061084282612469565b5b9050919050565b606060008054610859906143ab565b80601f0160208091040260200160405190810160405280929190818152602001828054610885906143ab565b80156108d25780601f106108a7576101008083540402835291602001916108d2565b820191906000526020600020905b8154815290600101906020018083116108b557829003601f168201915b5050505050905090565b60006108e7826124d3565b506108f18261255b565b9050919050565b606060008211801561090c5750600f548211155b61094b576040517f08c379a000000000000000000000000000000000000000000000000000000000815260040161094290614428565b60405180910390fd5b600d60008381526020019081526020016000208054806020026020016040519081016040528092919081815260200182805480156109de57602002820191906000526020600020905b8160009054906101000a900473ffffffffffffffffffffffffffffffffffffffff1673ffffffffffffffffffffffffffffffffffffffff1681526020019060010190808311610994575b50505050509050919050565b6109fc82826109f7612598565b6125a0565b5050565b610a086125b2565b600082118015610a1a5750600f548211155b610a59576040517f08c379a0000000000000000000000000000000000000000000000000000000008152600401610a5090614428565b60405180910390fd5b6009600083815260200190815260200160002060050160009054906101000a900460ff16610abc576040517f08c379a0000000000000000000000000000000000000000000000000000000008152600401610ab390614494565b60405180910390fd5b60006001600a600085815260200190815260200160002080549050610ae191906144e3565b9050600a6000848152602001908152602001600020604051806060016040528083815260200184815260200160008152509080600181540180825580915050600190039060005260206000209060030201600090919091909150600082015181600001556020820151816001019081610b5a91906146c3565b5060408201518160020155505080837fed8911b3df733b7d5f75724158e54478ea12e30f49c9d31b5261879f5b76586f84604051610b98919061355e565b60405180910390a3505050565b600073ffffffffffffffffffffffffffffffffffffffff168273ffffffffffffffffffffffffffffffffffffffff1603610c175760006040517f64a0ae92000000000000000000000000000000000000000000000000000000008152600401610c0e9190613624565b60405180910390fd5b6000610c2b8383610c26612598565b612639565b90508373ffffffffffffffffffffffffffffffffffffffff168173ffffffffffffffffffffffffffffffffffffffff1614610ca1578382826040517f64283d7b000000000000000000000000000000000000000000000000000000008152600401610c9893929190614795565b60405180910390fd5b50505050565b600f5481565b6060600a6000838152602001908152602001600020805480602002602001604051908101604052809291908181526020016000905b82821015610dba578382906000526020600020906003020160405180606001604052908160008201548152602001600182018054610d1f906143ab565b80601f0160208091040260200160405190810160405280929190818152602001828054610d4b906143ab565b8015610d985780601f10610d6d57610100808354040283529160200191610d98565b820191906000526020600020905b815481529060010190602001808311610d7b57829003601f168201915b5050505050815260200160028201548152505081526020019060010190610ce2565b505050509050919050565b610dcd6125b2565b600082118015610ddf5750600f548211155b610e1e576040517f08c379a0000000000000000000000000000000000000000000000000000000008152600401610e1590614428565b60405180910390fd5b806009600084815260200190815260200160002060050160006101000a81548160ff021916908315150217905550817fb9780f4122c541e2b1edee07b1a4ce43dd3780c564bed9d103c302c17260dc5a82604051610e7c91906134b3565b60405180910390a25050565b610ea383838360405180602001604052806000815250612100565b505050565b610eb06125b2565b600082118015610ec25750600f548211155b610f01576040517f08c379a0000000000000000000000000000000000000000000000000000000008152600401610ef890614428565b60405180910390fd5b6000600d6000848152602001908152602001600020905060005b8180549050811015610fda576000600c60008681526020019081526020016000206000848481548110610f5157610f506147cc565b5b9060005260206000200160009054906101000a900473ffffffffffffffffffffffffffffffffffffffff1673ffffffffffffffffffffffffffffffffffffffff1673ffffffffffffffffffffffffffffffffffffffff16815260200190815260200160002060006101000a81548160ff0219169083151502179055508080600101915050610f1b565b50600d60008481526020019081526020016000206000610ffa9190613389565b60005b82518110156111e257600083828151811061101b5761101a6147cc565b5b60200260200101519050600073ffffffffffffffffffffffffffffffffffffffff168173ffffffffffffffffffffffffffffffffffffffff1603611094576040517f08c379a000000000000000000000000000000000000000000000000000000000815260040161108b90614847565b60405180910390fd5b600c600086815260200190815260200160002060008273ffffffffffffffffffffffffffffffffffffffff1673ffffffffffffffffffffffffffffffffffffffff16815260200190815260200160002060009054906101000a900460ff166111d4576001600c600087815260200190815260200160002060008373ffffffffffffffffffffffffffffffffffffffff1673ffffffffffffffffffffffffffffffffffffffff16815260200190815260200160002060006101000a81548160ff021916908315150217905550600d6000868152602001908152602001600020819080600181540180825580915050600190039060005260206000200160009091909190916101000a81548173ffffffffffffffffffffffffffffffffffffffff021916908373ffffffffffffffffffffffffffffffffffffffff1602179055505b508080600101915050610ffd565b50827fcb154e3e500347cc5c18d8cf97dff834f3422c9c65ebfd2afb8fc3de1fe38fcf600d600086815260200190815260200160002080549050604051611229919061397e565b60405180910390a2505050565b6060600e60008373ffffffffffffffffffffffffffffffffffffffff1673ffffffffffffffffffffffffffffffffffffffff168152602001908152602001600020805480602002602001604051908101604052809291908181526020016000905b828210156112e75783829060005260206000209060030201604051806060016040529081600082015481526020016001820154815260200160028201548152505081526020019060010190611297565b505050509050919050565b60606000600f5467ffffffffffffffff81111561131257611311613795565b5b60405190808252806020026020018201604052801561134b57816020015b6113386133aa565b8152602001906001900390816113305790505b5090506000600190505b600f54811161151657600960008281526020019081526020016000206040518060c001604052908160008201548152602001600182018054611396906143ab565b80601f01602080910402602001604051908101604052809291908181526020018280546113c2906143ab565b801561140f5780601f106113e45761010080835404028352916020019161140f565b820191906000526020600020905b8154815290600101906020018083116113f257829003601f168201915b50505050508152602001600282018054611428906143ab565b80601f0160208091040260200160405190810160405280929190818152602001828054611454906143ab565b80156114a15780601f10611476576101008083540402835291602001916114a1565b820191906000526020600020905b81548152906001019060200180831161148457829003601f168201915b5050505050815260200160038201548152602001600482015481526020016005820160009054906101000a900460ff161515151581525050826001836114e79190614867565b815181106114f8576114f76147cc565b5b6020026020010181905250808061150e9061489b565b915050611355565b508091505090565b6000611529826124d3565b9050919050565b6008602052806000526040600020600091509050805461154f906143ab565b80601f016020809104026020016040519081016040528092919081815260200182805461157b906143ab565b80156115c85780601f1061159d576101008083540402835291602001916115c8565b820191906000526020600020905b8154815290600101906020018083116115ab57829003601f168201915b505050505081565b60008073ffffffffffffffffffffffffffffffffffffffff168273ffffffffffffffffffffffffffffffffffffffff16036116435760006040517f89c62b6400000000000000000000000000000000000000000000000000000000815260040161163a9190613624565b60405180910390fd5b600360008373ffffffffffffffffffffffffffffffffffffffff1673ffffffffffffffffffffffffffffffffffffffff168152602001908152602001600020549050919050565b6116926125b2565b61169c6000612706565b565b60075481565b6000600b600084815260200190815260200160002060008373ffffffffffffffffffffffffffffffffffffffff1673ffffffffffffffffffffffffffffffffffffffff16815260200190815260200160002060009054906101000a900460ff16905092915050565b600a602052816000526040600020818154811061172857600080fd5b906000526020600020906003020160009150915050806000015490806001018054611752906143ab565b80601f016020809104026020016040519081016040528092919081815260200182805461177e906143ab565b80156117cb5780601f106117a0576101008083540402835291602001916117cb565b820191906000526020600020905b8154815290600101906020018083116117ae57829003601f168201915b5050505050908060020154905083565b6009602052806000526040600020600091509050806000015490806001018054611804906143ab565b80601f0160208091040260200160405190810160405280929190818152602001828054611830906143ab565b801561187d5780601f106118525761010080835404028352916020019161187d565b820191906000526020600020905b81548152906001019060200180831161186057829003601f168201915b505050505090806002018054611892906143ab565b80601f01602080910402602001604051908101604052809291908181526020018280546118be906143ab565b801561190b5780601f106118e05761010080835404028352916020019161190b565b820191906000526020600020905b8154815290600101906020018083116118ee57829003601f168201915b5050505050908060030154908060040154908060050160009054906101000a900460ff16905086565b6000600660009054906101000a900473ffffffffffffffffffffffffffffffffffffffff16905090565b60606001805461196d906143ab565b80601f0160208091040260200160405190810160405280929190818152602001828054611999906143ab565b80156119e65780601f106119bb576101008083540402835291602001916119e6565b820191906000526020600020905b8154815290600101906020018083116119c957829003601f168201915b5050505050905090565b600c6020528160005260406000206020528060005260406000206000915091509054906101000a900460ff1681565b611a31611a2a612598565b83836127cc565b5050565b611a3d6125b2565b600f6000815480929190611a509061489b565b91905055506040518060c00160405280600f5481526020018581526020018481526020018381526020018281526020016001151581525060096000600f548152602001908152602001600020600082015181600001556020820151816001019081611abb91906146c3565b506040820151816002019081611ad191906146c3565b50606082015181600301556080820151816004015560a08201518160050160006101000a81548160ff021916908315150217905550905050600f547f4904011aa43162d2343adeb37498885f778d0af67c7ccfc7810d7068192b2a1b858484604051611b3f939291906148e3565b60405180910390a250505050565b600e6020528160005260406000208181548110611b6957600080fd5b9060005260206000209060030201600091509150508060000154908060010154908060020154905083565b600082118015611ba65750600f548211155b611be5576040517f08c379a0000000000000000000000000000000000000000000000000000000008152600401611bdc90614428565b60405180910390fd5b60006009600084815260200190815260200160002090508060050160009054906101000a900460ff16611c4d576040517f08c379a0000000000000000000000000000000000000000000000000000000008152600401611c449061496d565b60405180910390fd5b8060030154421015611c94576040517f08c379a0000000000000000000000000000000000000000000000000000000008152600401611c8b906149d9565b60405180910390fd5b8060040154421115611cdb576040517f08c379a0000000000000000000000000000000000000000000000000000000008152600401611cd290614a45565b60405180910390fd5b600b600084815260200190815260200160002060003373ffffffffffffffffffffffffffffffffffffffff1673ffffffffffffffffffffffffffffffffffffffff16815260200190815260200160002060009054906101000a900460ff1615611d79576040517f08c379a0000000000000000000000000000000000000000000000000000000008152600401611d7090614ad7565b60405180910390fd5b611d838333612020565b611dc2576040517f08c379a0000000000000000000000000000000000000000000000000000000008152600401611db990614b69565b60405180910390fd5b6000611dcd336115d0565b11611e0d576040517f08c379a0000000000000000000000000000000000000000000000000000000008152600401611e0490614bfb565b60405180910390fd5b600082118015611e335750600a6000848152602001908152602001600020805490508211155b611e72576040517f08c379a0000000000000000000000000000000000000000000000000000000008152600401611e6990614c67565b60405180910390fd5b6001600b600085815260200190815260200160002060003373ffffffffffffffffffffffffffffffffffffffff1673ffffffffffffffffffffffffffffffffffffffff16815260200190815260200160002060006101000a81548160ff021916908315150217905550600a6000848152602001908152602001600020600183611efb9190614867565b81548110611f0c57611f0b6147cc565b5b90600052602060002090600302016002016000815480929190611f2e9061489b565b9190505550600e60003373ffffffffffffffffffffffffffffffffffffffff1673ffffffffffffffffffffffffffffffffffffffff16815260200190815260200160002060405180606001604052808581526020018481526020014281525090806001815401808255809150506001900390600052602060002090600302016000909190919091506000820151816000015560208201518160010155604082015181600201555050813373ffffffffffffffffffffffffffffffffffffffff16847f1abe610cf2bf87e57dcc1181fcf5ac0934e843d8344ab9eed6e86c799f62585e60405160405180910390a4505050565b600080831180156120335750600f548311155b612072576040517f08c379a000000000000000000000000000000000000000000000000000000000815260040161206990614428565b60405180910390fd5b6000600d6000858152602001908152602001600020805490500361209957600190506120fa565b600c600084815260200190815260200160002060008373ffffffffffffffffffffffffffffffffffffffff1673ffffffffffffffffffffffffffffffffffffffff16815260200190815260200160002060009054906101000a900460ff1690505b92915050565b61210b848484610ba5565b61211f612116612598565b8585858561293b565b50505050565b6060612130826124d3565b506000600860008481526020019081526020016000208054612151906143ab565b80601f016020809104026020016040519081016040528092919081815260200182805461217d906143ab565b80156121ca5780601f1061219f576101008083540402835291602001916121ca565b820191906000526020600020905b8154815290600101906020018083116121ad57829003601f168201915b5050505050905060006121ff8283846040516020016121eb93929190614ed7565b604051602081830303815290604052612aec565b9050806040516020016122129190614f96565b60405160208183030381529060405292505050919050565b6122326125b2565b6010816040516122429190614fb8565b908152602001604051809103902060009054906101000a900460ff161561229e576040517f08c379a00000000000000000000000000000000000000000000000000000000081526004016122959061501b565b60405180910390fd5b6000600760008154809291906122b39061489b565b919050559050816008600083815260200190815260200160002090816122d991906146c3565b5060016010836040516122ec9190614fb8565b908152602001604051809103902060006101000a81548160ff02191690831515021790555061231b8382612b19565b505050565b600b6020528160005260406000206020528060005260406000206000915091509054906101000a900460ff1681565b6000600560008473ffffffffffffffffffffffffffffffffffffffff1673ffffffffffffffffffffffffffffffffffffffff16815260200190815260200160002060008373ffffffffffffffffffffffffffffffffffffffff1673ffffffffffffffffffffffffffffffffffffffff16815260200190815260200160002060009054906101000a900460ff16905092915050565b6123eb6125b2565b600073ffffffffffffffffffffffffffffffffffffffff168173ffffffffffffffffffffffffffffffffffffffff160361245d5760006040517f1e4fbdf70000000000000000000000000000000000000000000000000000000081526004016124549190613624565b60405180910390fd5b61246681612706565b50565b60007f01ffc9a7000000000000000000000000000000000000000000000000000000007bffffffffffffffffffffffffffffffffffffffffffffffffffffffff1916827bffffffffffffffffffffffffffffffffffffffffffffffffffffffff1916149050919050565b6000806124df83612b37565b9050600073ffffffffffffffffffffffffffffffffffffffff168173ffffffffffffffffffffffffffffffffffffffff160361255257826040517f7e273289000000000000000000000000000000000000000000000000000000008152600401612549919061397e565b60405180910390fd5b80915050919050565b60006004600083815260200190815260200160002060009054906101000a900473ffffffffffffffffffffffffffffffffffffffff169050919050565b600033905090565b6125ad8383836001612b74565b505050565b6125ba612598565b73ffffffffffffffffffffffffffffffffffffffff166125d8611934565b73ffffffffffffffffffffffffffffffffffffffff1614612637576125fb612598565b6040517f118cdaa700000000000000000000000000000000000000000000000000000000815260040161262e9190613624565b60405180910390fd5b565b60008061264584612b37565b9050600073ffffffffffffffffffffffffffffffffffffffff168173ffffffffffffffffffffffffffffffffffffffff16141580156126b15750600073ffffffffffffffffffffffffffffffffffffffff168573ffffffffffffffffffffffffffffffffffffffff1614155b156126f1576040517f08c379a00000000000000000000000000000000000000000000000000000000081526004016126e8906150ad565b60405180910390fd5b6126fc858585612d39565b9150509392505050565b6000600660009054906101000a900473ffffffffffffffffffffffffffffffffffffffff16905081600660006101000a81548173ffffffffffffffffffffffffffffffffffffffff021916908373ffffffffffffffffffffffffffffffffffffffff1602179055508173ffffffffffffffffffffffffffffffffffffffff168173ffffffffffffffffffffffffffffffffffffffff167f8be0079c531659141344cd1fd0a4f28419497f9722a3daafe3b4186f6b6457e060405160405180910390a35050565b600073ffffffffffffffffffffffffffffffffffffffff168273ffffffffffffffffffffffffffffffffffffffff160361283d57816040517f5b08ba180000000000000000000000000000000000000000000000000000000081526004016128349190613624565b60405180910390fd5b80600560008573ffffffffffffffffffffffffffffffffffffffff1673ffffffffffffffffffffffffffffffffffffffff16815260200190815260200160002060008473ffffffffffffffffffffffffffffffffffffffff1673ffffffffffffffffffffffffffffffffffffffff16815260200190815260200160002060006101000a81548160ff0219169083151502179055508173ffffffffffffffffffffffffffffffffffffffff168373ffffffffffffffffffffffffffffffffffffffff167f17307eab39ab6107e8899845ad3d59bd9653f200f220920489ca2b5937696c318360405161292e91906134b3565b60405180910390a3505050565b60008373ffffffffffffffffffffffffffffffffffffffff163b1115612ae5578273ffffffffffffffffffffffffffffffffffffffff1663150b7a02868685856040518563ffffffff1660e01b815260040161299a9493929190615122565b6020604051808303816000875af19250505080156129d657506040513d601f19601f820116820180604052508101906129d39190615183565b60015b612a5a573d8060008114612a06576040519150601f19603f3d011682016040523d82523d6000602084013e612a0b565b606091505b506000815103612a5257836040517f64a0ae92000000000000000000000000000000000000000000000000000000008152600401612a499190613624565b60405180910390fd5b805160208201fd5b63150b7a0260e01b7bffffffffffffffffffffffffffffffffffffffffffffffffffffffff1916817bffffffffffffffffffffffffffffffffffffffffffffffffffffffff191614612ae357836040517f64a0ae92000000000000000000000000000000000000000000000000000000008152600401612ada9190613624565b60405180910390fd5b505b5050505050565b6060612b128260405180606001604052806040815260200161527c604091396001612f53565b9050919050565b612b338282604051806020016040528060008152506130e7565b5050565b60006002600083815260200190815260200160002060009054906101000a900473ffffffffffffffffffffffffffffffffffffffff169050919050565b8080612bad5750600073ffffffffffffffffffffffffffffffffffffffff168273ffffffffffffffffffffffffffffffffffffffff1614155b15612ce1576000612bbd846124d3565b9050600073ffffffffffffffffffffffffffffffffffffffff168373ffffffffffffffffffffffffffffffffffffffff1614158015612c2857508273ffffffffffffffffffffffffffffffffffffffff168173ffffffffffffffffffffffffffffffffffffffff1614155b8015612c3b5750612c39818461234f565b155b15612c7d57826040517fa9fbf51f000000000000000000000000000000000000000000000000000000008152600401612c749190613624565b60405180910390fd5b8115612cdf57838573ffffffffffffffffffffffffffffffffffffffff168273ffffffffffffffffffffffffffffffffffffffff167f8c5be1e5ebec7d5bd14f71427d1e84f3dd0314c0f7b2291e5b200ac8c7c3b92560405160405180910390a45b505b836004600085815260200190815260200160002060006101000a81548173ffffffffffffffffffffffffffffffffffffffff021916908373ffffffffffffffffffffffffffffffffffffffff16021790555050505050565b600080612d4584612b37565b9050600073ffffffffffffffffffffffffffffffffffffffff168373ffffffffffffffffffffffffffffffffffffffff1614612d8757612d8681848661310b565b5b600073ffffffffffffffffffffffffffffffffffffffff168173ffffffffffffffffffffffffffffffffffffffff1614612e1857612dc9600085600080612b74565b6001600360008373ffffffffffffffffffffffffffffffffffffffff1673ffffffffffffffffffffffffffffffffffffffff168152602001908152602001600020600082825403925050819055505b600073ffffffffffffffffffffffffffffffffffffffff168573ffffffffffffffffffffffffffffffffffffffff1614612e9b576001600360008773ffffffffffffffffffffffffffffffffffffffff1673ffffffffffffffffffffffffffffffffffffffff168152602001908152602001600020600082825401925050819055505b846002600086815260200190815260200160002060006101000a81548173ffffffffffffffffffffffffffffffffffffffff021916908373ffffffffffffffffffffffffffffffffffffffff160217905550838573ffffffffffffffffffffffffffffffffffffffff168273ffffffffffffffffffffffffffffffffffffffff167fddf252ad1be2c89b69c2b068fc378daa952ba7f163c4a11628f55a4df523b3ef60405160405180910390a4809150509392505050565b60606000845103612f75576040518060200160405280600081525090506130e0565b600082612fa7576003600286516004612f8e91906151b0565b612f9891906144e3565b612fa29190615221565b612fce565b600360028651612fb791906144e3565b612fc19190615221565b6004612fcd91906151b0565b5b905060008167ffffffffffffffff811115612fec57612feb613795565b5b6040519080825280601f01601f19166020018201604052801561301e5781602001600182028036833780820191505090505b50905060018501602082018788518901602081018051600082525b82841015613094576003840193508351603f8160121c168701518653600186019550603f81600c1c168701518653600186019550603f8160061c168701518653600186019550603f8116870151865360018601955050613039565b80825289156130d45760038c5106600181146130b757600281146130ca576130d2565b603d6001870353603d60028703536130d2565b603d60018703535b505b50505050505080925050505b9392505050565b6130f183836131cf565b6131066130fc612598565b600085858561293b565b505050565b6131168383836132c8565b6131ca57600073ffffffffffffffffffffffffffffffffffffffff168373ffffffffffffffffffffffffffffffffffffffff160361318b57806040517f7e273289000000000000000000000000000000000000000000000000000000008152600401613182919061397e565b60405180910390fd5b81816040517f177e802f0000000000000000000000000000000000000000000000000000000081526004016131c1929190615252565b60405180910390fd5b505050565b600073ffffffffffffffffffffffffffffffffffffffff168273ffffffffffffffffffffffffffffffffffffffff16036132415760006040517f64a0ae920000000000000000000000000000000000000000000000000000000081526004016132389190613624565b60405180910390fd5b600061324f83836000612639565b9050600073ffffffffffffffffffffffffffffffffffffffff168173ffffffffffffffffffffffffffffffffffffffff16146132c35760006040517f73c6ac6e0000000000000000000000000000000000000000000000000000000081526004016132ba9190613624565b60405180910390fd5b505050565b60008073ffffffffffffffffffffffffffffffffffffffff168373ffffffffffffffffffffffffffffffffffffffff161415801561338057508273ffffffffffffffffffffffffffffffffffffffff168473ffffffffffffffffffffffffffffffffffffffff1614806133415750613340848461234f565b5b8061337f57508273ffffffffffffffffffffffffffffffffffffffff166133678361255b565b73ffffffffffffffffffffffffffffffffffffffff16145b5b90509392505050565b50805460008255906000526020600020908101906133a791906133e2565b50565b6040518060c0016040528060008152602001606081526020016060815260200160008152602001600081526020016000151581525090565b5b808211156133fb5760008160009055506001016133e3565b5090565b6000604051905090565b600080fd5b600080fd5b60007fffffffff0000000000000000000000000000000000000000000000000000000082169050919050565b61344881613413565b811461345357600080fd5b50565b6000813590506134658161343f565b92915050565b60006020828403121561348157613480613409565b5b600061348f84828501613456565b91505092915050565b60008115159050919050565b6134ad81613498565b82525050565b60006020820190506134c860008301846134a4565b92915050565b600081519050919050565b600082825260208201905092915050565b60005b838110156135085780820151818401526020810190506134ed565b60008484015250505050565b6000601f19601f8301169050919050565b6000613530826134ce565b61353a81856134d9565b935061354a8185602086016134ea565b61355381613514565b840191505092915050565b600060208201905081810360008301526135788184613525565b905092915050565b6000819050919050565b61359381613580565b811461359e57600080fd5b50565b6000813590506135b08161358a565b92915050565b6000602082840312156135cc576135cb613409565b5b60006135da848285016135a1565b91505092915050565b600073ffffffffffffffffffffffffffffffffffffffff82169050919050565b600061360e826135e3565b9050919050565b61361e81613603565b82525050565b60006020820190506136396000830184613615565b92915050565b600081519050919050565b600082825260208201905092915050565b6000819050602082019050919050565b61367481613603565b82525050565b6000613686838361366b565b60208301905092915050565b6000602082019050919050565b60006136aa8261363f565b6136b4818561364a565b93506136bf8361365b565b8060005b838110156136f05781516136d7888261367a565b97506136e283613692565b9250506001810190506136c3565b5085935050505092915050565b60006020820190508181036000830152613717818461369f565b905092915050565b61372881613603565b811461373357600080fd5b50565b6000813590506137458161371f565b92915050565b6000806040838503121561376257613761613409565b5b600061377085828601613736565b9250506020613781858286016135a1565b9150509250929050565b600080fd5b600080fd5b7f4e487b7100000000000000000000000000000000000000000000000000000000600052604160045260246000fd5b6137cd82613514565b810181811067ffffffffffffffff821117156137ec576137eb613795565b5b80604052505050565b60006137ff6133ff565b905061380b82826137c4565b919050565b600067ffffffffffffffff82111561382b5761382a613795565b5b61383482613514565b9050602081019050919050565b82818337600083830152505050565b600061386361385e84613810565b6137f5565b90508281526020810184848401111561387f5761387e613790565b5b61388a848285613841565b509392505050565b600082601f8301126138a7576138a661378b565b5b81356138b7848260208601613850565b91505092915050565b600080604083850312156138d7576138d6613409565b5b60006138e5858286016135a1565b925050602083013567ffffffffffffffff8111156139065761390561340e565b5b61391285828601613892565b9150509250929050565b60008060006060848603121561393557613934613409565b5b600061394386828701613736565b935050602061395486828701613736565b9250506040613965868287016135a1565b9150509250925092565b61397881613580565b82525050565b6000602082019050613993600083018461396f565b92915050565b600081519050919050565b600082825260208201905092915050565b6000819050602082019050919050565b6139ce81613580565b82525050565b600082825260208201905092915050565b60006139f0826134ce565b6139fa81856139d4565b9350613a0a8185602086016134ea565b613a1381613514565b840191505092915050565b6000606083016000830151613a3660008601826139c5565b5060208301518482036020860152613a4e82826139e5565b9150506040830151613a6360408601826139c5565b508091505092915050565b6000613a7a8383613a1e565b905092915050565b6000602082019050919050565b6000613a9a82613999565b613aa481856139a4565b935083602082028501613ab6856139b5565b8060005b85811015613af25784840389528151613ad38582613a6e565b9450613ade83613a82565b925060208a01995050600181019050613aba565b50829750879550505050505092915050565b60006020820190508181036000830152613b1e8184613a8f565b905092915050565b613b2f81613498565b8114613b3a57600080fd5b50565b600081359050613b4c81613b26565b92915050565b60008060408385031215613b6957613b68613409565b5b6000613b77858286016135a1565b9250506020613b8885828601613b3d565b9150509250929050565b600067ffffffffffffffff821115613bad57613bac613795565b5b602082029050602081019050919050565b600080fd5b6000613bd6613bd184613b92565b6137f5565b90508083825260208201905060208402830185811115613bf957613bf8613bbe565b5b835b81811015613c225780613c0e8882613736565b845260208401935050602081019050613bfb565b5050509392505050565b600082601f830112613c4157613c4061378b565b5b8135613c51848260208601613bc3565b91505092915050565b60008060408385031215613c7157613c70613409565b5b6000613c7f858286016135a1565b925050602083013567ffffffffffffffff811115613ca057613c9f61340e565b5b613cac85828601613c2c565b9150509250929050565b600060208284031215613ccc57613ccb613409565b5b6000613cda84828501613736565b91505092915050565b600081519050919050565b600082825260208201905092915050565b6000819050602082019050919050565b606082016000820151613d2560008501826139c5565b506020820151613d3860208501826139c5565b506040820151613d4b60408501826139c5565b50505050565b6000613d5d8383613d0f565b60608301905092915050565b6000602082019050919050565b6000613d8182613ce3565b613d8b8185613cee565b9350613d9683613cff565b8060005b83811015613dc7578151613dae8882613d51565b9750613db983613d69565b925050600181019050613d9a565b5085935050505092915050565b60006020820190508181036000830152613dee8184613d76565b905092915050565b600081519050919050565b600082825260208201905092915050565b6000819050602082019050919050565b613e2b81613498565b82525050565b600060c083016000830151613e4960008601826139c5565b5060208301518482036020860152613e6182826139e5565b91505060408301518482036040860152613e7b82826139e5565b9150506060830151613e9060608601826139c5565b506080830151613ea360808601826139c5565b5060a0830151613eb660a0860182613e22565b508091505092915050565b6000613ecd8383613e31565b905092915050565b6000602082019050919050565b6000613eed82613df6565b613ef78185613e01565b935083602082028501613f0985613e12565b8060005b85811015613f455784840389528151613f268582613ec1565b9450613f3183613ed5565b925060208a01995050600181019050613f0d565b50829750879550505050505092915050565b60006020820190508181036000830152613f718184613ee2565b905092915050565b60008060408385031215613f9057613f8f613409565b5b6000613f9e858286016135a1565b9250506020613faf85828601613736565b9150509250929050565b60008060408385031215613fd057613fcf613409565b5b6000613fde858286016135a1565b9250506020613fef858286016135a1565b9150509250929050565b600060608201905061400e600083018661396f565b81810360208301526140208185613525565b905061402f604083018461396f565b949350505050565b600060c08201905061404c600083018961396f565b818103602083015261405e8188613525565b905081810360408301526140728187613525565b9050614081606083018661396f565b61408e608083018561396f565b61409b60a08301846134a4565b979650505050505050565b600080604083850312156140bd576140bc613409565b5b60006140cb85828601613736565b92505060206140dc85828601613b3d565b9150509250929050565b60008060008060808587031215614100576140ff613409565b5b600085013567ffffffffffffffff81111561411e5761411d61340e565b5b61412a87828801613892565b945050602085013567ffffffffffffffff81111561414b5761414a61340e565b5b61415787828801613892565b9350506040614168878288016135a1565b9250506060614179878288016135a1565b91505092959194509250565b600060608201905061419a600083018661396f565b6141a7602083018561396f565b6141b4604083018461396f565b949350505050565b600067ffffffffffffffff8211156141d7576141d6613795565b5b6141e082613514565b9050602081019050919050565b60006142006141fb846141bc565b6137f5565b90508281526020810184848401111561421c5761421b613790565b5b614227848285613841565b509392505050565b600082601f8301126142445761424361378b565b5b81356142548482602086016141ed565b91505092915050565b6000806000806080858703121561427757614276613409565b5b600061428587828801613736565b945050602061429687828801613736565b93505060406142a7878288016135a1565b925050606085013567ffffffffffffffff8111156142c8576142c761340e565b5b6142d48782880161422f565b91505092959194509250565b600080604083850312156142f7576142f6613409565b5b600061430585828601613736565b925050602083013567ffffffffffffffff8111156143265761432561340e565b5b61433285828601613892565b9150509250929050565b6000806040838503121561435357614352613409565b5b600061436185828601613736565b925050602061437285828601613736565b9150509250929050565b7f4e487b7100000000000000000000000000000000000000000000000000000000600052602260045260246000fd5b600060028204905060018216806143c357607f821691505b6020821081036143d6576143d561437c565b5b50919050565b7f496e76616c69642073657373696f6e2049440000000000000000000000000000600082015250565b60006144126012836134d9565b915061441d826143dc565b602082019050919050565b6000602082019050818103600083015261444181614405565b9050919050565b7f53657373696f6e206973206e6f74206163746976650000000000000000000000600082015250565b600061447e6015836134d9565b915061448982614448565b602082019050919050565b600060208201905081810360008301526144ad81614471565b9050919050565b7f4e487b7100000000000000000000000000000000000000000000000000000000600052601160045260246000fd5b60006144ee82613580565b91506144f983613580565b9250828201905080821115614511576145106144b4565b5b92915050565b60008190508160005260206000209050919050565b60006020601f8301049050919050565b600082821b905092915050565b6000600883026145797fffffffffffffffffffffffffffffffffffffffffffffffffffffffffffffffff8261453c565b614583868361453c565b95508019841693508086168417925050509392505050565b6000819050919050565b60006145c06145bb6145b684613580565b61459b565b613580565b9050919050565b6000819050919050565b6145da836145a5565b6145ee6145e6826145c7565b848454614549565b825550505050565b600090565b6146036145f6565b61460e8184846145d1565b505050565b5b81811015614632576146276000826145fb565b600181019050614614565b5050565b601f8211156146775761464881614517565b6146518461452c565b81016020851015614660578190505b61467461466c8561452c565b830182614613565b50505b505050565b600082821c905092915050565b600061469a6000198460080261467c565b1980831691505092915050565b60006146b38383614689565b9150826002028217905092915050565b6146cc826134ce565b67ffffffffffffffff8111156146e5576146e4613795565b5b6146ef82546143ab565b6146fa828285614636565b600060209050601f83116001811461472d576000841561471b578287015190505b61472585826146a7565b86555061478d565b601f19841661473b86614517565b60005b828110156147635784890151825560018201915060208501945060208101905061473e565b86831015614780578489015161477c601f891682614689565b8355505b6001600288020188555050505b505050505050565b60006060820190506147aa6000830186613615565b6147b7602083018561396f565b6147c46040830184613615565b949350505050565b7f4e487b7100000000000000000000000000000000000000000000000000000000600052603260045260246000fd5b7f496e76616c696420766f74657220616464726573730000000000000000000000600082015250565b60006148316015836134d9565b915061483c826147fb565b602082019050919050565b6000602082019050818103600083015261486081614824565b9050919050565b600061487282613580565b915061487d83613580565b9250828203905081811115614895576148946144b4565b5b92915050565b60006148a682613580565b91507fffffffffffffffffffffffffffffffffffffffffffffffffffffffffffffffff82036148d8576148d76144b4565b5b600182019050919050565b600060608201905081810360008301526148fd8186613525565b905061490c602083018561396f565b614919604083018461396f565b949350505050565b7f53657373696f6e20697320636c6f736564000000000000000000000000000000600082015250565b60006149576011836134d9565b915061496282614921565b602082019050919050565b600060208201905081810360008301526149868161494a565b9050919050565b7f566f74696e6720686173206e6f74207374617274656400000000000000000000600082015250565b60006149c36016836134d9565b91506149ce8261498d565b602082019050919050565b600060208201905081810360008301526149f2816149b6565b9050919050565b7f566f74696e672068617320656e64656400000000000000000000000000000000600082015250565b6000614a2f6010836134d9565b9150614a3a826149f9565b602082019050919050565b60006020820190508181036000830152614a5e81614a22565b9050919050565b7f596f75206861766520616c726561647920766f74656420696e2074686973207360008201527f657373696f6e0000000000000000000000000000000000000000000000000000602082015250565b6000614ac16026836134d9565b9150614acc82614a65565b604082019050919050565b60006020820190508181036000830152614af081614ab4565b9050919050565b7f596f7520617265206e6f7420656c696769626c6520666f72207468697320736560008201527f7373696f6e000000000000000000000000000000000000000000000000000000602082015250565b6000614b536025836134d9565b9150614b5e82614af7565b604082019050919050565b60006020820190508181036000830152614b8281614b46565b9050919050565b7f596f75206d75737420686f6c6420612053747564656e74204e465420746f207660008201527f6f74650000000000000000000000000000000000000000000000000000000000602082015250565b6000614be56023836134d9565b9150614bf082614b89565b604082019050919050565b60006020820190508181036000830152614c1481614bd8565b9050919050565b7f496e76616c69642063616e646964617465204944000000000000000000000000600082015250565b6000614c516014836134d9565b9150614c5c82614c1b565b602082019050919050565b60006020820190508181036000830152614c8081614c44565b9050919050565b600081905092915050565b7f7b226e616d65223a202253747564656e742049443a2000000000000000000000600082015250565b6000614cc8601683614c87565b9150614cd382614c92565b601682019050919050565b6000614ce9826134ce565b614cf38185614c87565b9350614d038185602086016134ea565b80840191505092915050565b7f222c000000000000000000000000000000000000000000000000000000000000600082015250565b6000614d45600283614c87565b9150614d5082614d0f565b600282019050919050565b7f226465736372697074696f6e223a20224469676974616c204964656e7469747960008201527f20666f722053747564656e742049442000000000000000000000000000000000602082015250565b6000614db7603083614c87565b9150614dc282614d5b565b603082019050919050565b7f2e20566572696669656420627920556e69766572736974792e222c0000000000600082015250565b6000614e03601b83614c87565b9150614e0e82614dcd565b601b82019050919050565b7f2261747472696275746573223a205b7b2274726169745f74797065223a20225360008201527f747564656e74204944222c202276616c7565223a202200000000000000000000602082015250565b6000614e75603683614c87565b9150614e8082614e19565b603682019050919050565b7f227d5d7d00000000000000000000000000000000000000000000000000000000600082015250565b6000614ec1600483614c87565b9150614ecc82614e8b565b600482019050919050565b6000614ee282614cbb565b9150614eee8286614cde565b9150614ef982614d38565b9150614f0482614daa565b9150614f108285614cde565b9150614f1b82614df6565b9150614f2682614e68565b9150614f328284614cde565b9150614f3d82614eb4565b9150819050949350505050565b7f646174613a6170706c69636174696f6e2f6a736f6e3b6261736536342c000000600082015250565b6000614f80601d83614c87565b9150614f8b82614f4a565b601d82019050919050565b6000614fa182614f73565b9150614fad8284614cde565b915081905092915050565b6000614fc48284614cde565b915081905092915050565b7f53747564656e7420494420616c72656164792068617320616e204e4654000000600082015250565b6000615005601d836134d9565b915061501082614fcf565b602082019050919050565b6000602082019050818103600083015261503481614ff8565b9050919050565b7f566f74696e6753797374656d3a20536f756c626f756e6420746f6b656e20636160008201527f6e6e6f74206265207472616e7366657272656400000000000000000000000000602082015250565b60006150976033836134d9565b91506150a28261503b565b604082019050919050565b600060208201905081810360008301526150c68161508a565b9050919050565b600081519050919050565b600082825260208201905092915050565b60006150f4826150cd565b6150fe81856150d8565b935061510e8185602086016134ea565b61511781613514565b840191505092915050565b60006080820190506151376000830187613615565b6151446020830186613615565b615151604083018561396f565b818103606083015261516381846150e9565b905095945050505050565b60008151905061517d8161343f565b92915050565b60006020828403121561519957615198613409565b5b60006151a78482850161516e565b91505092915050565b60006151bb82613580565b91506151c683613580565b92508282026151d481613580565b915082820484148315176151eb576151ea6144b4565b5b5092915050565b7f4e487b7100000000000000000000000000000000000000000000000000000000600052601260045260246000fd5b600061522c82613580565b915061523783613580565b925082615247576152466151f2565b5b828204905092915050565b60006040820190506152676000830185613615565b615274602083018461396f565b939250505056fe4142434445464748494a4b4c4d4e4f505152535455565758595a6162636465666768696a6b6c6d6e6f707172737475767778797a303132333435363738392b2fa26469706673582212201a6c1cba8aea837781956dd91947076b335894a670594a807cce8006acdb30d364736f6c634300081c0033",
  "linkReferences": {},
  "deployedLinkReferences": {}
}