{
  "_format": "hh-sol-artifact-1",
  "contractName": "VotingSystem",
  "sourceName": "contracts/VotingSystem.sol",
  "abi": [
    {
      "inputs": [],
      "stateMutability": "nonpayable",
      "type": "constructor"
    },
    {
      "inputs": [],
      "name": "AccessControlBadConfirmation",
      "type": "error"
    },
    {
      "inputs": [
        {
          "internalType": "address",
          "name": "account",
          "type": "address"
        },
        {
          "internalType": "bytes32",
          "name": "neededRole",
          "type": "bytes32"
        }
      ],
      "name": "AccessControlUnauthorizedAccount",
      "type": "error"
    },
    {
      "inputs": [
        {
          "internalType": "address",
          "name": "sender",
          "type": "address"
        },
        {
          "internalType": "uint256",
          "name": "tokenId",
          "type": "uint256"
        },
        {
          "internalType": "address",
          "name": "owner",
          "type": "address"
        }
      ],
      "name": "ERC721IncorrectOwner",
      "type": "error"
    },
    {
      "inputs": [
        {
          "internalType": "address",
          "name": "operator",
          "type": "address"
        },
        {
          "internalType": "uint256",
          "name": "tokenId",
          "type": "uint256"
        }
      ],
      "name": "ERC721InsufficientApproval",
      "type": "error"
    },
    {
      "inputs": [
        {
          "internalType": "address",
          "name": "approver",
          "type": "address"
        }
      ],
      "name": "ERC721InvalidApprover",
      "type": "error"
    },
    {
      "inputs": [
        {
          "internalType": "address",
          "name": "operator",
          "type": "address"
        }
      ],
      "name": "ERC721InvalidOperator",
      "type": "error"
    },
    {
      "inputs": [
        {
          "internalType": "address",
          "name": "owner",
          "type": "address"
        }
      ],
      "name": "ERC721InvalidOwner",
      "type": "error"
    },
    {
      "inputs": [
        {
          "internalType": "address",
          "name": "receiver",
          "type": "address"
        }
      ],
      "name": "ERC721InvalidReceiver",
      "type": "error"
    },
    {
      "inputs": [
        {
          "internalType": "address",
          "name": "sender",
          "type": "address"
        }
      ],
      "name": "ERC721InvalidSender",
      "type": "error"
    },
    {
      "inputs": [
        {
          "internalType": "uint256",
          "name": "tokenId",
          "type": "uint256"
        }
      ],
      "name": "ERC721NonexistentToken",
      "type": "error"
    },
    {
      "anonymous": false,
      "inputs": [
        {
          "indexed": true,
          "internalType": "address",
          "name": "owner",
          "type": "address"
        },
        {
          "indexed": true,
          "internalType": "address",
          "name": "approved",
          "type": "address"
        },
        {
          "indexed": true,
          "internalType": "uint256",
          "name": "tokenId",
          "type": "uint256"
        }
      ],
      "name": "Approval",
      "type": "event"
    },
    {
      "anonymous": false,
      "inputs": [
        {
          "indexed": true,
          "internalType": "address",
          "name": "owner",
          "type": "address"
        },
        {
          "indexed": true,
          "internalType": "address",
          "name": "operator",
          "type": "address"
        },
        {
          "indexed": false,
          "internalType": "bool",
          "name": "approved",
          "type": "bool"
        }
      ],
      "name": "ApprovalForAll",
      "type": "event"
    },
    {
      "anonymous": false,
      "inputs": [
        {
          "indexed": true,
          "internalType": "uint256",
          "name": "sessionId",
          "type": "uint256"
        },
        {
          "indexed": true,
          "internalType": "uint256",
          "name": "candidateId",
          "type": "uint256"
        },
        {
          "indexed": false,
          "internalType": "string",
          "name": "name",
          "type": "string"
        }
      ],
      "name": "CandidateAdded",
      "type": "event"
    },
    {
      "anonymous": false,
      "inputs": [
        {
          "indexed": true,
          "internalType": "bytes32",
          "name": "role",
          "type": "bytes32"
        },
        {
          "indexed": true,
          "internalType": "bytes32",
          "name": "previousAdminRole",
          "type": "bytes32"
        },
        {
          "indexed": true,
          "internalType": "bytes32",
          "name": "newAdminRole",
          "type": "bytes32"
        }
      ],
      "name": "RoleAdminChanged",
      "type": "event"
    },
    {
      "anonymous": false,
      "inputs": [
        {
          "indexed": true,
          "internalType": "bytes32",
          "name": "role",
          "type": "bytes32"
        },
        {
          "indexed": true,
          "internalType": "address",
          "name": "account",
          "type": "address"
        },
        {
          "indexed": true,
          "internalType": "address",
          "name": "sender",
          "type": "address"
        }
      ],
      "name": "RoleGranted",
      "type": "event"
    },
    {
      "anonymous": false,
      "inputs": [
        {
          "indexed": true,
          "internalType": "bytes32",
          "name": "role",
          "type": "bytes32"
        },
        {
          "indexed": true,
          "internalType": "address",
          "name": "account",
          "type": "address"
        },
        {
          "indexed": true,
          "internalType": "address",
          "name": "sender",
          "type": "address"
        }
      ],
      "name": "RoleRevoked",
      "type": "event"
    },
    {
      "anonymous": false,
      "inputs": [
        {
          "indexed": true,
          "internalType": "uint256",
          "name": "sessionId",
          "type": "uint256"
        },
        {
          "indexed": false,
          "internalType": "uint256",
          "name": "voterCount",
          "type": "uint256"
        }
      ],
      "name": "SessionAllowedVotersUpdated",
      "type": "event"
    },
    {
      "anonymous": false,
      "inputs": [
        {
          "indexed": true,
          "internalType": "uint256",
          "name": "sessionId",
          "type": "uint256"
        },
        {
          "indexed": false,
          "internalType": "string",
          "name": "name",
          "type": "string"
        },
        {
          "indexed": false,
          "internalType": "uint256",
          "name": "startTime",
          "type": "uint256"
        },
        {
          "indexed": false,
          "internalType": "uint256",
          "name": "endTime",
          "type": "uint256"
        }
      ],
      "name": "SessionCreated",
      "type": "event"
    },
    {
      "anonymous": false,
      "inputs": [
        {
          "indexed": true,
          "internalType": "uint256",
          "name": "sessionId",
          "type": "uint256"
        },
        {
          "indexed": false,
          "internalType": "bool",
          "name": "isActive",
          "type": "bool"
        }
      ],
      "name": "SessionStatusChanged",
      "type": "event"
    },
    {
      "anonymous": false,
      "inputs": [
        {
          "indexed": true,
          "internalType": "address",
          "name": "from",
          "type": "address"
        },
        {
          "indexed": true,
          "internalType": "address",
          "name": "to",
          "type": "address"
        },
        {
          "indexed": true,
          "internalType": "uint256",
          "name": "tokenId",
          "type": "uint256"
        }
      ],
      "name": "Transfer",
      "type": "event"
    },
    {
      "anonymous": false,
      "inputs": [
        {
          "indexed": true,
          "internalType": "uint256",
          "name": "sessionId",
          "type": "uint256"
        },
        {
          "indexed": true,
          "internalType": "address",
          "name": "voter",
          "type": "address"
        },
        {
          "indexed": true,
          "internalType": "uint256",
          "name": "candidateId",
          "type": "uint256"
        }
      ],
      "name": "Voted",
      "type": "event"
    },
    {
      "inputs": [],
      "name": "ADMIN_ROLE",
      "outputs": [
        {
          "internalType": "bytes32",
          "name": "",
          "type": "bytes32"
        }
      ],
      "stateMutability": "view",
      "type": "function"
    },
    {
      "inputs": [],
      "name": "DEFAULT_ADMIN_ROLE",
      "outputs": [
        {
          "internalType": "bytes32",
          "name": "",
          "type": "bytes32"
        }
      ],
      "stateMutability": "view",
      "type": "function"
    },
    {
      "inputs": [
        {
          "internalType": "uint256",
          "name": "_sessionId",
          "type": "uint256"
        },
        {
          "internalType": "string",
          "name": "_name",
          "type": "string"
        }
      ],
      "name": "addCandidate",
      "outputs": [],
      "stateMutability": "nonpayable",
      "type": "function"
    },
    {
      "inputs": [
        {
          "internalType": "address",
          "name": "to",
          "type": "address"
        },
        {
          "internalType": "uint256",
          "name": "tokenId",
          "type": "uint256"
        }
      ],
      "name": "approve",
      "outputs": [],
      "stateMutability": "nonpayable",
      "type": "function"
    },
    {
      "inputs": [
        {
          "internalType": "address",
          "name": "owner",
          "type": "address"
        }
      ],
      "name": "balanceOf",
      "outputs": [
        {
          "internalType": "uint256",
          "name": "",
          "type": "uint256"
        }
      ],
      "stateMutability": "view",
      "type": "function"
    },
    {
      "inputs": [
        {
          "internalType": "uint256",
          "name": "_sessionId",
          "type": "uint256"
        },
        {
          "internalType": "address",
          "name": "_user",
          "type": "address"
        }
      ],
      "name": "checkUserVoted",
      "outputs": [
        {
          "internalType": "bool",
          "name": "",
          "type": "bool"
        }
      ],
      "stateMutability": "view",
      "type": "function"
    },
    {
      "inputs": [
        {
          "internalType": "string",
          "name": "_name",
          "type": "string"
        },
        {
          "internalType": "string",
          "name": "_description",
          "type": "string"
        },
        {
          "internalType": "uint256",
          "name": "_startTime",
          "type": "uint256"
        },
        {
          "internalType": "uint256",
          "name": "_endTime",
          "type": "uint256"
        }
      ],
      "name": "createSession",
      "outputs": [],
      "stateMutability": "nonpayable",
      "type": "function"
    },
    {
      "inputs": [],
      "name": "getAllSessions",
      "outputs": [
        {
          "components": [
            {
              "internalType": "uint256",
              "name": "id",
              "type": "uint256"
            },
            {
              "internalType": "string",
              "name": "name",
              "type": "string"
            },
            {
              "internalType": "string",
              "name": "description",
              "type": "string"
            },
            {
              "internalType": "uint256",
              "name": "startTime",
              "type": "uint256"
            },
            {
              "internalType": "uint256",
              "name": "endTime",
              "type": "uint256"
            },
            {
              "internalType": "bool",
              "name": "isActive",
              "type": "bool"
            }
          ],
          "internalType": "struct VotingSystem.Session[]",
          "name": "",
          "type": "tuple[]"
        }
      ],
      "stateMutability": "view",
      "type": "function"
    },
    {
      "inputs": [
        {
          "internalType": "uint256",
          "name": "tokenId",
          "type": "uint256"
        }
      ],
      "name": "getApproved",
      "outputs": [
        {
          "internalType": "address",
          "name": "",
          "type": "address"
        }
      ],
      "stateMutability": "view",
      "type": "function"
    },
    {
      "inputs": [
        {
          "internalType": "uint256",
          "name": "_sessionId",
          "type": "uint256"
        }
      ],
      "name": "getCandidates",
      "outputs": [
        {
          "components": [
            {
              "internalType": "uint256",
              "name": "id",
              "type": "uint256"
            },
            {
              "internalType": "string",
              "name": "name",
              "type": "string"
            },
            {
              "internalType": "uint256",
              "name": "voteCount",
              "type": "uint256"
            }
          ],
          "internalType": "struct VotingSystem.Candidate[]",
          "name": "",
          "type": "tuple[]"
        }
      ],
      "stateMutability": "view",
      "type": "function"
    },
    {
      "inputs": [
        {
          "internalType": "bytes32",
          "name": "role",
          "type": "bytes32"
        }
      ],
      "name": "getRoleAdmin",
      "outputs": [
        {
          "internalType": "bytes32",
          "name": "",
          "type": "bytes32"
        }
      ],
      "stateMutability": "view",
      "type": "function"
    },
    {
      "inputs": [
        {
          "internalType": "uint256",
          "name": "_sessionId",
          "type": "uint256"
        }
      ],
      "name": "getSessionAllowedVoters",
      "outputs": [
        {
          "internalType": "address[]",
          "name": "",
          "type": "address[]"
        }
      ],
      "stateMutability": "view",
      "type": "function"
    },
    {
      "inputs": [
        {
          "internalType": "address",
          "name": "_user",
          "type": "address"
        }
      ],
      "name": "getUserHistory",
      "outputs": [
        {
          "components": [
            {
              "internalType": "uint256",
              "name": "sessionId",
              "type": "uint256"
            },
            {
              "internalType": "uint256",
              "name": "candidateId",
              "type": "uint256"
            },
            {
              "internalType": "uint256",
              "name": "timestamp",
              "type": "uint256"
            }
          ],
          "internalType": "struct VotingSystem.VoteRecord[]",
          "name": "",
          "type": "tuple[]"
        }
      ],
      "stateMutability": "view",
      "type": "function"
    },
    {
      "inputs": [
        {
          "internalType": "bytes32",
          "name": "role",
          "type": "bytes32"
        },
        {
          "internalType": "address",
          "name": "account",
          "type": "address"
        }
      ],
      "name": "grantRole",
      "outputs": [],
      "stateMutability": "nonpayable",
      "type": "function"
    },
    {
      "inputs": [
        {
          "internalType": "bytes32",
          "name": "role",
          "type": "bytes32"
        },
        {
          "internalType": "address",
          "name": "account",
          "type": "address"
        }
      ],
      "name": "hasRole",
      "outputs": [
        {
          "internalType": "bool",
          "name": "",
          "type": "bool"
        }
      ],
      "stateMutability": "view",
      "type": "function"
    },
    {
      "inputs": [
        {
          "internalType": "uint256",
          "name": "",
          "type": "uint256"
        },
        {
          "internalType": "address",
          "name": "",
          "type": "address"
        }
      ],
      "name": "hasVotedInSession",
      "outputs": [
        {
          "internalType": "bool",
          "name": "",
          "type": "bool"
        }
      ],
      "stateMutability": "view",
      "type": "function"
    },
    {
      "inputs": [
        {
          "internalType": "address",
          "name": "owner",
          "type": "address"
        },
        {
          "internalType": "address",
          "name": "operator",
          "type": "address"
        }
      ],
      "name": "isApprovedForAll",
      "outputs": [
        {
          "internalType": "bool",
          "name": "",
          "type": "bool"
        }
      ],
      "stateMutability": "view",
      "type": "function"
    },
    {
      "inputs": [
        {
          "internalType": "uint256",
          "name": "_sessionId",
          "type": "uint256"
        },
        {
          "internalType": "address",
          "name": "_voter",
          "type": "address"
        }
      ],
      "name": "isEligibleForSession",
      "outputs": [
        {
          "internalType": "bool",
          "name": "",
          "type": "bool"
        }
      ],
      "stateMutability": "view",
      "type": "function"
    },
    {
      "inputs": [
        {
          "internalType": "uint256",
          "name": "",
          "type": "uint256"
        },
        {
          "internalType": "address",
          "name": "",
          "type": "address"
        }
      ],
      "name": "isSessionVoterAllowed",
      "outputs": [
        {
          "internalType": "bool",
          "name": "",
          "type": "bool"
        }
      ],
      "stateMutability": "view",
      "type": "function"
    },
    {
      "inputs": [
        {
          "internalType": "address",
          "name": "to",
          "type": "address"
        },
        {
          "internalType": "string",
          "name": "_studentId",
          "type": "string"
        }
      ],
      "name": "mint",
      "outputs": [],
      "stateMutability": "nonpayable",
      "type": "function"
    },
    {
      "inputs": [],
      "name": "name",
      "outputs": [
        {
          "internalType": "string",
          "name": "",
          "type": "string"
        }
      ],
      "stateMutability": "view",
      "type": "function"
    },
    {
      "inputs": [],
      "name": "nextTokenId",
      "outputs": [
        {
          "internalType": "uint256",
          "name": "",
          "type": "uint256"
        }
      ],
      "stateMutability": "view",
      "type": "function"
    },
    {
      "inputs": [
        {
          "internalType": "uint256",
          "name": "tokenId",
          "type": "uint256"
        }
      ],
      "name": "ownerOf",
      "outputs": [
        {
          "internalType": "address",
          "name": "",
          "type": "address"
        }
      ],
      "stateMutability": "view",
      "type": "function"
    },
    {
      "inputs": [
        {
          "internalType": "bytes32",
          "name": "role",
          "type": "bytes32"
        },
        {
          "internalType": "address",
          "name": "callerConfirmation",
          "type": "address"
        }
      ],
      "name": "renounceRole",
      "outputs": [],
      "stateMutability": "nonpayable",
      "type": "function"
    },
    {
      "inputs": [
        {
          "internalType": "bytes32",
          "name": "role",
          "type": "bytes32"
        },
        {
          "internalType": "address",
          "name": "account",
          "type": "address"
        }
      ],
      "name": "revokeRole",
      "outputs": [],
      "stateMutability": "nonpayable",
      "type": "function"
    },
    {
      "inputs": [
        {
          "internalType": "address",
          "name": "from",
          "type": "address"
        },
        {
          "internalType": "address",
          "name": "to",
          "type": "address"
        },
        {
          "internalType": "uint256",
          "name": "tokenId",
          "type": "uint256"
        }
      ],
      "name": "safeTransferFrom",
      "outputs": [],
      "stateMutability": "nonpayable",
      "type": "function"
    },
    {
      "inputs": [
        {
          "internalType": "address",
          "name": "from",
          "type": "address"
        },
        {
          "internalType": "address",
          "name": "to",
          "type": "address"
        },
        {
          "internalType": "uint256",
          "name": "tokenId",
          "type": "uint256"
        },
        {
          "internalType": "bytes",
          "name": "data",
          "type": "bytes"
        }
      ],
      "name": "safeTransferFrom",
      "outputs": [],
      "stateMutability": "nonpayable",
      "type": "function"
    },
    {
      "inputs": [
        {
          "internalType": "uint256",
          "name": "",
          "type": "uint256"
        },
        {
          "internalType": "uint256",
          "name": "",
          "type": "uint256"
        }
      ],
      "name": "sessionCandidates",
      "outputs": [
        {
          "internalType": "uint256",
          "name": "id",
          "type": "uint256"
        },
        {
          "internalType": "string",
          "name": "name",
          "type": "string"
        },
        {
          "internalType": "uint256",
          "name": "voteCount",
          "type": "uint256"
        }
      ],
      "stateMutability": "view",
      "type": "function"
    },
    {
      "inputs": [
        {
          "internalType": "uint256",
          "name": "",
          "type": "uint256"
        }
      ],
      "name": "sessions",
      "outputs": [
        {
          "internalType": "uint256",
          "name": "id",
          "type": "uint256"
        },
        {
          "internalType": "string",
          "name": "name",
          "type": "string"
        },
        {
          "internalType": "string",
          "name": "description",
          "type": "string"
        },
        {
          "internalType": "uint256",
          "name": "startTime",
          "type": "uint256"
        },
        {
          "internalType": "uint256",
          "name": "endTime",
          "type": "uint256"
        },
        {
          "internalType": "bool",
          "name": "isActive",
          "type": "bool"
        }
      ],
      "stateMutability": "view",
      "type": "function"
    },
    {
      "inputs": [],
      "name": "sessionsCount",
      "outputs": [
        {
          "internalType": "uint256",
          "name": "",
          "type": "uint256"
        }
      ],
      "stateMutability": "view",
      "type": "function"
    },
    {
      "inputs": [
        {
          "internalType": "address",
          "name": "operator",
          "type": "address"
        },
        {
          "internalType": "bool",
          "name": "approved",
          "type": "bool"
        }
      ],
      "name": "setApprovalForAll",
      "outputs": [],
      "stateMutability": "nonpayable",
      "type": "function"
    },
    {
      "inputs": [
        {
          "internalType": "uint256",
          "name": "_sessionId",
          "type": "uint256"
        },
        {
          "internalType": "address[]",
          "name": "_voters",
          "type": "address[]"
        }
      ],
      "name": "setSessionAllowedVoters",
      "outputs": [],
      "stateMutability": "nonpayable",
      "type": "function"
    },
    {
      "inputs": [
        {
          "internalType": "uint256",
          "name": "_sessionId",
          "type": "uint256"
        },
        {
          "internalType": "bool",
          "name": "_isActive",
          "type": "bool"
        }
      ],
      "name": "setSessionStatus",
      "outputs": [],
      "stateMutability": "nonpayable",
      "type": "function"
    },
    {
      "inputs": [
        {
          "internalType": "uint256",
          "name": "",
          "type": "uint256"
        }
      ],
      "name": "studentIds",
      "outputs": [
        {
          "internalType": "string",
          "name": "",
          "type": "string"
        }
      ],
      "stateMutability": "view",
      "type": "function"
    },
    {
      "inputs": [
        {
          "internalType": "bytes4",
          "name": "interfaceId",
          "type": "bytes4"
        }
      ],
      "name": "supportsInterface",
      "outputs": [
        {
          "internalType": "bool",
          "name": "",
          "type": "bool"
        }
      ],
      "stateMutability": "view",
      "type": "function"
    },
    {
      "inputs": [],
      "name": "symbol",
      "outputs": [
        {
          "internalType": "string",
          "name": "",
          "type": "string"
        }
      ],
      "stateMutability": "view",
      "type": "function"
    },
    {
      "inputs": [
        {
          "internalType": "uint256",
          "name": "tokenId",
          "type": "uint256"
        }
      ],
      "name": "tokenURI",
      "outputs": [
        {
          "internalType": "string",
          "name": "",
          "type": "string"
        }
      ],
      "stateMutability": "view",
      "type": "function"
    },
    {
      "inputs": [
        {
          "internalType": "address",
          "name": "from",
          "type": "address"
        },
        {
          "internalType": "address",
          "name": "to",
          "type": "address"
        },
        {
          "internalType": "uint256",
          "name": "tokenId",
          "type": "uint256"
        }
      ],
      "name": "transferFrom",
      "outputs": [],
      "stateMutability": "nonpayable",
      "type": "function"
    },
    {
      "inputs": [
        {
          "internalType": "address",
          "name": "",
          "type": "address"
        },
        {
          "internalType": "uint256",
          "name": "",
          "type": "uint256"
        }
      ],
      "name": "userVoteHistory",
      "outputs": [
        {
          "internalType": "uint256",
          "name": "sessionId",
          "type": "uint256"
        },
        {
          "internalType": "uint256",
          "name": "candidateId",
          "type": "uint256"
        },
        {
          "internalType": "uint256",
          "name": "timestamp",
          "type": "uint256"
        }
      ],
      "stateMutability": "view",
      "type": "function"
    },
    {
      "inputs": [
        {
          "internalType": "uint256",
          "name": "_sessionId",
          "type": "uint256"
        },
        {
          "internalType": "uint256",
          "name": "_candidateId",
          "type": "uint256"
        }
      ],
      "name": "vote",
      "outputs": [],
      "stateMutability": "nonpayable",
      "type": "function"
    }
  ],
  "bytecode": "0x608060405234801561001057600080fd5b506040518060400160405280600f81526020017f53747564656e744964656e7469747900000000000000000000000000000000008152506040518060400160405280600381526020017f5354550000000000000000000000000000000000000000000000000000000000815250816000908161008c91906104aa565b50806001908161009c91906104aa565b5050506100b26000801b336100e960201b60201c565b506100e37fa49807205ce4d355092ef5a8a18f56e8913cf4a201fbe287825b095693c21775336100e960201b60201c565b5061057c565b60006100fb83836101e760201b60201c565b6101dc5760016006600085815260200190815260200160002060000160008473ffffffffffffffffffffffffffffffffffffffff1673ffffffffffffffffffffffffffffffffffffffff16815260200190815260200160002060006101000a81548160ff02191690831515021790555061017961025260201b60201c565b73ffffffffffffffffffffffffffffffffffffffff168273ffffffffffffffffffffffffffffffffffffffff16847f2f8788117e7eff1d82e926ec794901d17c78024a50270940304540a733656f0d60405160405180910390a4600190506101e1565b600090505b92915050565b60006006600084815260200190815260200160002060000160008373ffffffffffffffffffffffffffffffffffffffff1673ffffffffffffffffffffffffffffffffffffffff16815260200190815260200160002060009054906101000a900460ff16905092915050565b600033905090565b600081519050919050565b7f4e487b7100000000000000000000000000000000000000000000000000000000600052604160045260246000fd5b7f4e487b7100000000000000000000000000000000000000000000000000000000600052602260045260246000fd5b600060028204905060018216806102db57607f821691505b6020821081036102ee576102ed610294565b5b50919050565b60008190508160005260206000209050919050565b60006020601f8301049050919050565b600082821b905092915050565b6000600883026103567fffffffffffffffffffffffffffffffffffffffffffffffffffffffffffffffff82610319565b6103608683610319565b95508019841693508086168417925050509392505050565b6000819050919050565b6000819050919050565b60006103a76103a261039d84610378565b610382565b610378565b9050919050565b6000819050919050565b6103c18361038c565b6103d56103cd826103ae565b848454610326565b825550505050565b600090565b6103ea6103dd565b6103f58184846103b8565b505050565b5b818110156104195761040e6000826103e2565b6001810190506103fb565b5050565b601f82111561045e5761042f816102f4565b61043884610309565b81016020851015610447578190505b61045b61045385610309565b8301826103fa565b50505b505050565b600082821c905092915050565b600061048160001984600802610463565b1980831691505092915050565b600061049a8383610470565b9150826002028217905092915050565b6104b38261025a565b67ffffffffffffffff8111156104cc576104cb610265565b5b6104d682546102c3565b6104e182828561041d565b600060209050601f8311600181146105145760008415610502578287015190505b61050c858261048e565b865550610574565b601f198416610522866102f4565b60005b8281101561054a57848901518255600182019150602085019450602081019050610525565b868310156105675784890151610563601f891682610470565b8355505b6001600288020188555050505b505050505050565b6157a88061058b6000396000f3fe608060405234801561001057600080fd5b50600436106102485760003560e01c806375794a3c1161013b578063a5bdf4e4116100b8578063c87b56dd1161007c578063c87b56dd14610778578063d0def521146107a8578063d2bd5bb7146107c4578063d547741f146107f4578063e985e9c51461081057610248565b8063a5bdf4e4146106c2578063a80e6e38146106de578063b384abef14610710578063b410ca781461072c578063b88d4fde1461075c57610248565b806391d14854116100ff57806391d148541461060a57806395d89b411461063a5780639ab8f8fc14610658578063a217fddf14610688578063a22cb465146106a657610248565b806375794a3c1461053757806375b238fc1461055557806378548399146105735780637d6ba55d146105a357806383c4b7a3146105d557610248565b806336568abe116101c95780634fb3d3b11161018d5780634fb3d3b11461045957806354ca06b4146104895780636352211e146104a75780636f28c355146104d757806370a082311461050757610248565b806336568abe146103b95780633e39a7a5146103d5578063414c2c491461040557806342842e0e146104215780634ab0a8981461043d57610248565b80631750a3d0116102105780631750a3d01461031757806323b872dd14610333578063248a9ca31461034f5780632f2ff15d1461037f578063312f63071461039b57610248565b806301ffc9a71461024d57806306fdde031461027d578063081812fc1461029b5780630819ad5c146102cb578063095ea7b3146102fb575b600080fd5b6102676004803603810190610262919061382c565b610840565b6040516102749190613874565b60405180910390f35b610285610852565b604051610292919061391f565b60405180910390f35b6102b560048036038101906102b09190613977565b6108e4565b6040516102c291906139e5565b60405180910390f35b6102e560048036038101906102e09190613977565b610900565b6040516102f29190613abe565b60405180910390f35b61031560048036038101906103109190613b0c565b6109f2565b005b610331600480360381019061032c9190613c81565b610a08565b005b61034d60048036038101906103489190613cdd565b610bd0565b005b61036960048036038101906103649190613d66565b610cd2565b6040516103769190613da2565b60405180910390f35b61039960048036038101906103949190613dbd565b610cf2565b005b6103a3610d14565b6040516103b09190613e0c565b60405180910390f35b6103d360048036038101906103ce9190613dbd565b610d1a565b005b6103ef60048036038101906103ea9190613977565b610d95565b6040516103fc9190613f92565b60405180910390f35b61041f600480360381019061041a9190613fe0565b610ead565b005b61043b60048036038101906104369190613cdd565b610f93565b005b610457600480360381019061045291906140e8565b610fb3565b005b610473600480360381019061046e9190614144565b611364565b6040516104809190614262565b60405180910390f35b610491611420565b60405161049e91906143e5565b60405180910390f35b6104c160048036038101906104bc9190613977565b61164c565b6040516104ce91906139e5565b60405180910390f35b6104f160048036038101906104ec9190613977565b61165e565b6040516104fe919061391f565b60405180910390f35b610521600480360381019061051c9190614144565b6116fe565b60405161052e9190613e0c565b60405180910390f35b61053f6117b8565b60405161054c9190613e0c565b60405180910390f35b61055d6117be565b60405161056a9190613da2565b60405180910390f35b61058d60048036038101906105889190614407565b6117e2565b60405161059a9190613874565b60405180910390f35b6105bd60048036038101906105b89190614447565b61184a565b6040516105cc93929190614487565b60405180910390f35b6105ef60048036038101906105ea9190613977565b611919565b604051610601969594939291906144c5565b60405180910390f35b610624600480360381019061061f9190613dbd565b611a72565b6040516106319190613874565b60405180910390f35b610642611add565b60405161064f919061391f565b60405180910390f35b610672600480360381019061066d9190614407565b611b6f565b60405161067f9190613874565b60405180910390f35b610690611b9e565b60405161069d9190613da2565b60405180910390f35b6106c060048036038101906106bb9190614534565b611ba5565b005b6106dc60048036038101906106d79190614574565b611bbb565b005b6106f860048036038101906106f39190613b0c565b611cf6565b60405161070793929190614613565b60405180910390f35b61072a60048036038101906107259190614447565b611d3d565b005b61074660048036038101906107419190614407565b6121c9565b6040516107539190613874565b60405180910390f35b610776600480360381019061077191906146eb565b6122a9565b005b610792600480360381019061078d9190613977565b6122ce565b60405161079f919061391f565b60405180910390f35b6107c260048036038101906107bd919061476e565b6123d3565b005b6107de60048036038101906107d99190614407565b6124ec565b6040516107eb9190613874565b60405180910390f35b61080e60048036038101906108099190613dbd565b61251b565b005b61082a600480360381019061082591906147ca565b61253d565b6040516108379190613874565b60405180910390f35b600061084b826125d1565b9050919050565b60606000805461086190614839565b80601f016020809104026020016040519081016040528092919081815260200182805461088d90614839565b80156108da5780601f106108af576101008083540402835291602001916108da565b820191906000526020600020905b8154815290600101906020018083116108bd57829003601f168201915b5050505050905090565b60006108ef8261264b565b506108f9826126d3565b9050919050565b60606000821180156109145750600f548211155b610953576040517f08c379a000000000000000000000000000000000000000000000000000000000815260040161094a906148b6565b60405180910390fd5b600d60008381526020019081526020016000208054806020026020016040519081016040528092919081815260200182805480156109e657602002820191906000526020600020905b8160009054906101000a900473ffffffffffffffffffffffffffffffffffffffff1673ffffffffffffffffffffffffffffffffffffffff168152602001906001019080831161099c575b50505050509050919050565b610a0482826109ff612710565b612718565b5050565b7fa49807205ce4d355092ef5a8a18f56e8913cf4a201fbe287825b095693c21775610a328161272a565b600083118015610a445750600f548311155b610a83576040517f08c379a0000000000000000000000000000000000000000000000000000000008152600401610a7a906148b6565b60405180910390fd5b6009600084815260200190815260200160002060050160009054906101000a900460ff16610ae6576040517f08c379a0000000000000000000000000000000000000000000000000000000008152600401610add90614922565b60405180910390fd5b60006001600a600086815260200190815260200160002080549050610b0b9190614971565b9050600a6000858152602001908152602001600020604051806060016040528083815260200185815260200160008152509080600181540180825580915050600190039060005260206000209060030201600090919091909150600082015181600001556020820151816001019081610b849190614b51565b5060408201518160020155505080847fed8911b3df733b7d5f75724158e54478ea12e30f49c9d31b5261879f5b76586f85604051610bc2919061391f565b60405180910390a350505050565b600073ffffffffffffffffffffffffffffffffffffffff168273ffffffffffffffffffffffffffffffffffffffff1603610c425760006040517f64a0ae92000000000000000000000000000000000000000000000000000000008152600401610c3991906139e5565b60405180910390fd5b6000610c568383610c51612710565b61273e565b90508373ffffffffffffffffffffffffffffffffffffffff168173ffffffffffffffffffffffffffffffffffffffff1614610ccc578382826040517f64283d7b000000000000000000000000000000000000000000000000000000008152600401610cc393929190614c23565b60405180910390fd5b50505050565b600060066000838152602001908152602001600020600101549050919050565b610cfb82610cd2565b610d048161272a565b610d0e838361280b565b50505050565b600f5481565b610d22612710565b73ffffffffffffffffffffffffffffffffffffffff168173ffffffffffffffffffffffffffffffffffffffff1614610d86576040517f6697b23200000000000000000000000000000000000000000000000000000000815260040160405180910390fd5b610d9082826128fd565b505050565b6060600a6000838152602001908152602001600020805480602002602001604051908101604052809291908181526020016000905b82821015610ea2578382906000526020600020906003020160405180606001604052908160008201548152602001600182018054610e0790614839565b80601f0160208091040260200160405190810160405280929190818152602001828054610e3390614839565b8015610e805780601f10610e5557610100808354040283529160200191610e80565b820191906000526020600020905b815481529060010190602001808311610e6357829003601f168201915b5050505050815260200160028201548152505081526020019060010190610dca565b505050509050919050565b7fa49807205ce4d355092ef5a8a18f56e8913cf4a201fbe287825b095693c21775610ed78161272a565b600083118015610ee95750600f548311155b610f28576040517f08c379a0000000000000000000000000000000000000000000000000000000008152600401610f1f906148b6565b60405180910390fd5b816009600085815260200190815260200160002060050160006101000a81548160ff021916908315150217905550827fb9780f4122c541e2b1edee07b1a4ce43dd3780c564bed9d103c302c17260dc5a83604051610f869190613874565b60405180910390a2505050565b610fae838383604051806020016040528060008152506122a9565b505050565b7fa49807205ce4d355092ef5a8a18f56e8913cf4a201fbe287825b095693c21775610fdd8161272a565b600083118015610fef5750600f548311155b61102e576040517f08c379a0000000000000000000000000000000000000000000000000000000008152600401611025906148b6565b60405180910390fd5b6000600d6000858152602001908152602001600020905060005b8180549050811015611107576000600c6000878152602001908152602001600020600084848154811061107e5761107d614c5a565b5b9060005260206000200160009054906101000a900473ffffffffffffffffffffffffffffffffffffffff1673ffffffffffffffffffffffffffffffffffffffff1673ffffffffffffffffffffffffffffffffffffffff16815260200190815260200160002060006101000a81548160ff0219169083151502179055508080600101915050611048565b50600d60008581526020019081526020016000206000611127919061374a565b60005b835181101561130f57600084828151811061114857611147614c5a565b5b60200260200101519050600073ffffffffffffffffffffffffffffffffffffffff168173ffffffffffffffffffffffffffffffffffffffff16036111c1576040517f08c379a00000000000000000000000000000000000000000000000000000000081526004016111b890614cd5565b60405180910390fd5b600c600087815260200190815260200160002060008273ffffffffffffffffffffffffffffffffffffffff1673ffffffffffffffffffffffffffffffffffffffff16815260200190815260200160002060009054906101000a900460ff16611301576001600c600088815260200190815260200160002060008373ffffffffffffffffffffffffffffffffffffffff1673ffffffffffffffffffffffffffffffffffffffff16815260200190815260200160002060006101000a81548160ff021916908315150217905550600d6000878152602001908152602001600020819080600181540180825580915050600190039060005260206000200160009091909190916101000a81548173ffffffffffffffffffffffffffffffffffffffff021916908373ffffffffffffffffffffffffffffffffffffffff1602179055505b50808060010191505061112a565b50837fcb154e3e500347cc5c18d8cf97dff834f3422c9c65ebfd2afb8fc3de1fe38fcf600d6000878152602001908152602001600020805490506040516113569190613e0c565b60405180910390a250505050565b6060600e60008373ffffffffffffffffffffffffffffffffffffffff1673ffffffffffffffffffffffffffffffffffffffff168152602001908152602001600020805480602002602001604051908101604052809291908181526020016000905b8282101561141557838290600052602060002090600302016040518060600160405290816000820154815260200160018201548152602001600282015481525050815260200190600101906113c5565b505050509050919050565b60606000600f5467ffffffffffffffff8111156114405761143f613b56565b5b60405190808252806020026020018201604052801561147957816020015b61146661376b565b81526020019060019003908161145e5790505b5090506000600190505b600f54811161164457600960008281526020019081526020016000206040518060c0016040529081600082015481526020016001820180546114c490614839565b80601f01602080910402602001604051908101604052809291908181526020018280546114f090614839565b801561153d5780601f106115125761010080835404028352916020019161153d565b820191906000526020600020905b81548152906001019060200180831161152057829003601f168201915b5050505050815260200160028201805461155690614839565b80601f016020809104026020016040519081016040528092919081815260200182805461158290614839565b80156115cf5780601f106115a4576101008083540402835291602001916115cf565b820191906000526020600020905b8154815290600101906020018083116115b257829003601f168201915b5050505050815260200160038201548152602001600482015481526020016005820160009054906101000a900460ff161515151581525050826001836116159190614cf5565b8151811061162657611625614c5a565b5b6020026020010181905250808061163c90614d29565b915050611483565b508091505090565b60006116578261264b565b9050919050565b6008602052806000526040600020600091509050805461167d90614839565b80601f01602080910402602001604051908101604052809291908181526020018280546116a990614839565b80156116f65780601f106116cb576101008083540402835291602001916116f6565b820191906000526020600020905b8154815290600101906020018083116116d957829003601f168201915b505050505081565b60008073ffffffffffffffffffffffffffffffffffffffff168273ffffffffffffffffffffffffffffffffffffffff16036117715760006040517f89c62b6400000000000000000000000000000000000000000000000000000000815260040161176891906139e5565b60405180910390fd5b600360008373ffffffffffffffffffffffffffffffffffffffff1673ffffffffffffffffffffffffffffffffffffffff168152602001908152602001600020549050919050565b60075481565b7fa49807205ce4d355092ef5a8a18f56e8913cf4a201fbe287825b095693c2177581565b6000600b600084815260200190815260200160002060008373ffffffffffffffffffffffffffffffffffffffff1673ffffffffffffffffffffffffffffffffffffffff16815260200190815260200160002060009054906101000a900460ff16905092915050565b600a602052816000526040600020818154811061186657600080fd5b90600052602060002090600302016000915091505080600001549080600101805461189090614839565b80601f01602080910402602001604051908101604052809291908181526020018280546118bc90614839565b80156119095780601f106118de57610100808354040283529160200191611909565b820191906000526020600020905b8154815290600101906020018083116118ec57829003601f168201915b5050505050908060020154905083565b600960205280600052604060002060009150905080600001549080600101805461194290614839565b80601f016020809104026020016040519081016040528092919081815260200182805461196e90614839565b80156119bb5780601f10611990576101008083540402835291602001916119bb565b820191906000526020600020905b81548152906001019060200180831161199e57829003601f168201915b5050505050908060020180546119d090614839565b80601f01602080910402602001604051908101604052809291908181526020018280546119fc90614839565b8015611a495780601f10611a1e57610100808354040283529160200191611a49565b820191906000526020600020905b815481529060010190602001808311611a2c57829003601f168201915b5050505050908060030154908060040154908060050160009054906101000a900460ff16905086565b60006006600084815260200190815260200160002060000160008373ffffffffffffffffffffffffffffffffffffffff1673ffffffffffffffffffffffffffffffffffffffff16815260200190815260200160002060009054906101000a900460ff16905092915050565b606060018054611aec90614839565b80601f0160208091040260200160405190810160405280929190818152602001828054611b1890614839565b8015611b655780601f10611b3a57610100808354040283529160200191611b65565b820191906000526020600020905b815481529060010190602001808311611b4857829003601f168201915b5050505050905090565b600c6020528160005260406000206020528060005260406000206000915091509054906101000a900460ff1681565b6000801b81565b611bb7611bb0612710565b83836129f0565b5050565b7fa49807205ce4d355092ef5a8a18f56e8913cf4a201fbe287825b095693c21775611be58161272a565b600f6000815480929190611bf890614d29565b91905055506040518060c00160405280600f5481526020018681526020018581526020018481526020018381526020016001151581525060096000600f548152602001908152602001600020600082015181600001556020820151816001019081611c639190614b51565b506040820151816002019081611c799190614b51565b50606082015181600301556080820151816004015560a08201518160050160006101000a81548160ff021916908315150217905550905050600f547f4904011aa43162d2343adeb37498885f778d0af67c7ccfc7810d7068192b2a1b868585604051611ce793929190614d71565b60405180910390a25050505050565b600e6020528160005260406000208181548110611d1257600080fd5b9060005260206000209060030201600091509150508060000154908060010154908060020154905083565b600082118015611d4f5750600f548211155b611d8e576040517f08c379a0000000000000000000000000000000000000000000000000000000008152600401611d85906148b6565b60405180910390fd5b60006009600084815260200190815260200160002090508060050160009054906101000a900460ff16611df6576040517f08c379a0000000000000000000000000000000000000000000000000000000008152600401611ded90614dfb565b60405180910390fd5b8060030154421015611e3d576040517f08c379a0000000000000000000000000000000000000000000000000000000008152600401611e3490614e67565b60405180910390fd5b8060040154421115611e84576040517f08c379a0000000000000000000000000000000000000000000000000000000008152600401611e7b90614ed3565b60405180910390fd5b600b600084815260200190815260200160002060003373ffffffffffffffffffffffffffffffffffffffff1673ffffffffffffffffffffffffffffffffffffffff16815260200190815260200160002060009054906101000a900460ff1615611f22576040517f08c379a0000000000000000000000000000000000000000000000000000000008152600401611f1990614f65565b60405180910390fd5b611f2c83336121c9565b611f6b576040517f08c379a0000000000000000000000000000000000000000000000000000000008152600401611f6290614ff7565b60405180910390fd5b6000611f76336116fe565b11611fb6576040517f08c379a0000000000000000000000000000000000000000000000000000000008152600401611fad90615089565b60405180910390fd5b600082118015611fdc5750600a6000848152602001908152602001600020805490508211155b61201b576040517f08c379a0000000000000000000000000000000000000000000000000000000008152600401612012906150f5565b60405180910390fd5b6001600b600085815260200190815260200160002060003373ffffffffffffffffffffffffffffffffffffffff1673ffffffffffffffffffffffffffffffffffffffff16815260200190815260200160002060006101000a81548160ff021916908315150217905550600a60008481526020019081526020016000206001836120a49190614cf5565b815481106120b5576120b4614c5a565b5b906000526020600020906003020160020160008154809291906120d790614d29565b9190505550600e60003373ffffffffffffffffffffffffffffffffffffffff1673ffffffffffffffffffffffffffffffffffffffff16815260200190815260200160002060405180606001604052808581526020018481526020014281525090806001815401808255809150506001900390600052602060002090600302016000909190919091506000820151816000015560208201518160010155604082015181600201555050813373ffffffffffffffffffffffffffffffffffffffff16847f1abe610cf2bf87e57dcc1181fcf5ac0934e843d8344ab9eed6e86c799f62585e60405160405180910390a4505050565b600080831180156121dc5750600f548311155b61221b576040517f08c379a0000000000000000000000000000000000000000000000000000000008152600401612212906148b6565b60405180910390fd5b6000600d6000858152602001908152602001600020805490500361224257600190506122a3565b600c600084815260200190815260200160002060008373ffffffffffffffffffffffffffffffffffffffff1673ffffffffffffffffffffffffffffffffffffffff16815260200190815260200160002060009054906101000a900460ff1690505b92915050565b6122b4848484610bd0565b6122c86122bf612710565b85858585612b5f565b50505050565b60606122d98261264b565b5060006008600084815260200190815260200160002080546122fa90614839565b80601f016020809104026020016040519081016040528092919081815260200182805461232690614839565b80156123735780601f1061234857610100808354040283529160200191612373565b820191906000526020600020905b81548152906001019060200180831161235657829003601f168201915b5050505050905060006123a882838460405160200161239493929190615365565b604051602081830303815290604052612d10565b9050806040516020016123bb9190615424565b60405160208183030381529060405292505050919050565b7fa49807205ce4d355092ef5a8a18f56e8913cf4a201fbe287825b095693c217756123fd8161272a565b60108260405161240d9190615446565b908152602001604051809103902060009054906101000a900460ff1615612469576040517f08c379a0000000000000000000000000000000000000000000000000000000008152600401612460906154a9565b60405180910390fd5b60006007600081548092919061247e90614d29565b919050559050826008600083815260200190815260200160002090816124a49190614b51565b5060016010846040516124b79190615446565b908152602001604051809103902060006101000a81548160ff0219169083151502179055506124e68482612d3d565b50505050565b600b6020528160005260406000206020528060005260406000206000915091509054906101000a900460ff1681565b61252482610cd2565b61252d8161272a565b61253783836128fd565b50505050565b6000600560008473ffffffffffffffffffffffffffffffffffffffff1673ffffffffffffffffffffffffffffffffffffffff16815260200190815260200160002060008373ffffffffffffffffffffffffffffffffffffffff1673ffffffffffffffffffffffffffffffffffffffff16815260200190815260200160002060009054906101000a900460ff16905092915050565b60007f7965db0b000000000000000000000000000000000000000000000000000000007bffffffffffffffffffffffffffffffffffffffffffffffffffffffff1916827bffffffffffffffffffffffffffffffffffffffffffffffffffffffff19161480612644575061264382612d5b565b5b9050919050565b60008061265783612e3d565b9050600073ffffffffffffffffffffffffffffffffffffffff168173ffffffffffffffffffffffffffffffffffffffff16036126ca57826040517f7e2732890000000000000000000000000000000000000000000000000000000081526004016126c19190613e0c565b60405180910390fd5b80915050919050565b60006004600083815260200190815260200160002060009054906101000a900473ffffffffffffffffffffffffffffffffffffffff169050919050565b600033905090565b6127258383836001612e7a565b505050565b61273b81612736612710565b61303f565b50565b60008061274a84612e3d565b9050600073ffffffffffffffffffffffffffffffffffffffff168173ffffffffffffffffffffffffffffffffffffffff16141580156127b65750600073ffffffffffffffffffffffffffffffffffffffff168573ffffffffffffffffffffffffffffffffffffffff1614155b156127f6576040517f08c379a00000000000000000000000000000000000000000000000000000000081526004016127ed9061553b565b60405180910390fd5b612801858585613090565b9150509392505050565b60006128178383611a72565b6128f25760016006600085815260200190815260200160002060000160008473ffffffffffffffffffffffffffffffffffffffff1673ffffffffffffffffffffffffffffffffffffffff16815260200190815260200160002060006101000a81548160ff02191690831515021790555061288f612710565b73ffffffffffffffffffffffffffffffffffffffff168273ffffffffffffffffffffffffffffffffffffffff16847f2f8788117e7eff1d82e926ec794901d17c78024a50270940304540a733656f0d60405160405180910390a4600190506128f7565b600090505b92915050565b60006129098383611a72565b156129e55760006006600085815260200190815260200160002060000160008473ffffffffffffffffffffffffffffffffffffffff1673ffffffffffffffffffffffffffffffffffffffff16815260200190815260200160002060006101000a81548160ff021916908315150217905550612982612710565b73ffffffffffffffffffffffffffffffffffffffff168273ffffffffffffffffffffffffffffffffffffffff16847ff6391f5c32d9c69d2a47ea670b442974b53935d1edc7fd64eb21e047a839171b60405160405180910390a4600190506129ea565b600090505b92915050565b600073ffffffffffffffffffffffffffffffffffffffff168273ffffffffffffffffffffffffffffffffffffffff1603612a6157816040517f5b08ba18000000000000000000000000000000000000000000000000000000008152600401612a5891906139e5565b60405180910390fd5b80600560008573ffffffffffffffffffffffffffffffffffffffff1673ffffffffffffffffffffffffffffffffffffffff16815260200190815260200160002060008473ffffffffffffffffffffffffffffffffffffffff1673ffffffffffffffffffffffffffffffffffffffff16815260200190815260200160002060006101000a81548160ff0219169083151502179055508173ffffffffffffffffffffffffffffffffffffffff168373ffffffffffffffffffffffffffffffffffffffff167f17307eab39ab6107e8899845ad3d59bd9653f200f220920489ca2b5937696c3183604051612b529190613874565b60405180910390a3505050565b60008373ffffffffffffffffffffffffffffffffffffffff163b1115612d09578273ffffffffffffffffffffffffffffffffffffffff1663150b7a02868685856040518563ffffffff1660e01b8152600401612bbe94939291906155b0565b6020604051808303816000875af1925050508015612bfa57506040513d601f19601f82011682018060405250810190612bf79190615611565b60015b612c7e573d8060008114612c2a576040519150601f19603f3d011682016040523d82523d6000602084013e612c2f565b606091505b506000815103612c7657836040517f64a0ae92000000000000000000000000000000000000000000000000000000008152600401612c6d91906139e5565b60405180910390fd5b805160208201fd5b63150b7a0260e01b7bffffffffffffffffffffffffffffffffffffffffffffffffffffffff1916817bffffffffffffffffffffffffffffffffffffffffffffffffffffffff191614612d0757836040517f64a0ae92000000000000000000000000000000000000000000000000000000008152600401612cfe91906139e5565b60405180910390fd5b505b5050505050565b6060612d36826040518060600160405280604081526020016157336040913960016132aa565b9050919050565b612d5782826040518060200160405280600081525061343e565b5050565b60007f80ac58cd000000000000000000000000000000000000000000000000000000007bffffffffffffffffffffffffffffffffffffffffffffffffffffffff1916827bffffffffffffffffffffffffffffffffffffffffffffffffffffffff19161480612e2657507f5b5e139f000000000000000000000000000000000000000000000000000000007bffffffffffffffffffffffffffffffffffffffffffffffffffffffff1916827bffffffffffffffffffffffffffffffffffffffffffffffffffffffff1916145b80612e365750612e3582613462565b5b9050919050565b60006002600083815260200190815260200160002060009054906101000a900473ffffffffffffffffffffffffffffffffffffffff169050919050565b8080612eb35750600073ffffffffffffffffffffffffffffffffffffffff168273ffffffffffffffffffffffffffffffffffffffff1614155b15612fe7576000612ec38461264b565b9050600073ffffffffffffffffffffffffffffffffffffffff168373ffffffffffffffffffffffffffffffffffffffff1614158015612f2e57508273ffffffffffffffffffffffffffffffffffffffff168173ffffffffffffffffffffffffffffffffffffffff1614155b8015612f415750612f3f818461253d565b155b15612f8357826040517fa9fbf51f000000000000000000000000000000000000000000000000000000008152600401612f7a91906139e5565b60405180910390fd5b8115612fe557838573ffffffffffffffffffffffffffffffffffffffff168273ffffffffffffffffffffffffffffffffffffffff167f8c5be1e5ebec7d5bd14f71427d1e84f3dd0314c0f7b2291e5b200ac8c7c3b92560405160405180910390a45b505b836004600085815260200190815260200160002060006101000a81548173ffffffffffffffffffffffffffffffffffffffff021916908373ffffffffffffffffffffffffffffffffffffffff16021790555050505050565b6130498282611a72565b61308c5780826040517fe2517d3f00000000000000000000000000000000000000000000000000000000815260040161308392919061563e565b60405180910390fd5b5050565b60008061309c84612e3d565b9050600073ffffffffffffffffffffffffffffffffffffffff168373ffffffffffffffffffffffffffffffffffffffff16146130de576130dd8184866134cc565b5b600073ffffffffffffffffffffffffffffffffffffffff168173ffffffffffffffffffffffffffffffffffffffff161461316f57613120600085600080612e7a565b6001600360008373ffffffffffffffffffffffffffffffffffffffff1673ffffffffffffffffffffffffffffffffffffffff168152602001908152602001600020600082825403925050819055505b600073ffffffffffffffffffffffffffffffffffffffff168573ffffffffffffffffffffffffffffffffffffffff16146131f2576001600360008773ffffffffffffffffffffffffffffffffffffffff1673ffffffffffffffffffffffffffffffffffffffff168152602001908152602001600020600082825401925050819055505b846002600086815260200190815260200160002060006101000a81548173ffffffffffffffffffffffffffffffffffffffff021916908373ffffffffffffffffffffffffffffffffffffffff160217905550838573ffffffffffffffffffffffffffffffffffffffff168273ffffffffffffffffffffffffffffffffffffffff167fddf252ad1be2c89b69c2b068fc378daa952ba7f163c4a11628f55a4df523b3ef60405160405180910390a4809150509392505050565b606060008451036132cc57604051806020016040528060008152509050613437565b6000826132fe5760036002865160046132e59190615667565b6132ef9190614971565b6132f991906156d8565b613325565b60036002865161330e9190614971565b61331891906156d8565b60046133249190615667565b5b905060008167ffffffffffffffff81111561334357613342613b56565b5b6040519080825280601f01601f1916602001820160405280156133755781602001600182028036833780820191505090505b50905060018501602082018788518901602081018051600082525b828410156133eb576003840193508351603f8160121c168701518653600186019550603f81600c1c168701518653600186019550603f8160061c168701518653600186019550603f8116870151865360018601955050613390565b808252891561342b5760038c51066001811461340e576002811461342157613429565b603d6001870353603d6002870353613429565b603d60018703535b505b50505050505080925050505b9392505050565b6134488383613590565b61345d613453612710565b6000858585612b5f565b505050565b60007f01ffc9a7000000000000000000000000000000000000000000000000000000007bffffffffffffffffffffffffffffffffffffffffffffffffffffffff1916827bffffffffffffffffffffffffffffffffffffffffffffffffffffffff1916149050919050565b6134d7838383613689565b61358b57600073ffffffffffffffffffffffffffffffffffffffff168373ffffffffffffffffffffffffffffffffffffffff160361354c57806040517f7e2732890000000000000000000000000000000000000000000000000000000081526004016135439190613e0c565b60405180910390fd5b81816040517f177e802f000000000000000000000000000000000000000000000000000000008152600401613582929190615709565b60405180910390fd5b505050565b600073ffffffffffffffffffffffffffffffffffffffff168273ffffffffffffffffffffffffffffffffffffffff16036136025760006040517f64a0ae920000000000000000000000000000000000000000000000000000000081526004016135f991906139e5565b60405180910390fd5b60006136108383600061273e565b9050600073ffffffffffffffffffffffffffffffffffffffff168173ffffffffffffffffffffffffffffffffffffffff16146136845760006040517f73c6ac6e00000000000000000000000000000000000000000000000000000000815260040161367b91906139e5565b60405180910390fd5b505050565b60008073ffffffffffffffffffffffffffffffffffffffff168373ffffffffffffffffffffffffffffffffffffffff161415801561374157508273ffffffffffffffffffffffffffffffffffffffff168473ffffffffffffffffffffffffffffffffffffffff1614806137025750613701848461253d565b5b8061374057508273ffffffffffffffffffffffffffffffffffffffff16613728836126d3565b73ffffffffffffffffffffffffffffffffffffffff16145b5b90509392505050565b508054600082559060005260206000209081019061376891906137a3565b50565b6040518060c0016040528060008152602001606081526020016060815260200160008152602001600081526020016000151581525090565b5b808211156137bc5760008160009055506001016137a4565b5090565b6000604051905090565b600080fd5b600080fd5b60007fffffffff0000000000000000000000000000000000000000000000000000000082169050919050565b613809816137d4565b811461381457600080fd5b50565b60008135905061382681613800565b92915050565b600060208284031215613842576138416137ca565b5b600061385084828501613817565b91505092915050565b60008115159050919050565b61386e81613859565b82525050565b60006020820190506138896000830184613865565b92915050565b600081519050919050565b600082825260208201905092915050565b60005b838110156138c95780820151818401526020810190506138ae565b60008484015250505050565b6000601f19601f8301169050919050565b60006138f18261388f565b6138fb818561389a565b935061390b8185602086016138ab565b613914816138d5565b840191505092915050565b6000602082019050818103600083015261393981846138e6565b905092915050565b6000819050919050565b61395481613941565b811461395f57600080fd5b50565b6000813590506139718161394b565b92915050565b60006020828403121561398d5761398c6137ca565b5b600061399b84828501613962565b91505092915050565b600073ffffffffffffffffffffffffffffffffffffffff82169050919050565b60006139cf826139a4565b9050919050565b6139df816139c4565b82525050565b60006020820190506139fa60008301846139d6565b92915050565b600081519050919050565b600082825260208201905092915050565b6000819050602082019050919050565b613a35816139c4565b82525050565b6000613a478383613a2c565b60208301905092915050565b6000602082019050919050565b6000613a6b82613a00565b613a758185613a0b565b9350613a8083613a1c565b8060005b83811015613ab1578151613a988882613a3b565b9750613aa383613a53565b925050600181019050613a84565b5085935050505092915050565b60006020820190508181036000830152613ad88184613a60565b905092915050565b613ae9816139c4565b8114613af457600080fd5b50565b600081359050613b0681613ae0565b92915050565b60008060408385031215613b2357613b226137ca565b5b6000613b3185828601613af7565b9250506020613b4285828601613962565b9150509250929050565b600080fd5b600080fd5b7f4e487b7100000000000000000000000000000000000000000000000000000000600052604160045260246000fd5b613b8e826138d5565b810181811067ffffffffffffffff82111715613bad57613bac613b56565b5b80604052505050565b6000613bc06137c0565b9050613bcc8282613b85565b919050565b600067ffffffffffffffff821115613bec57613beb613b56565b5b613bf5826138d5565b9050602081019050919050565b82818337600083830152505050565b6000613c24613c1f84613bd1565b613bb6565b905082815260208101848484011115613c4057613c3f613b51565b5b613c4b848285613c02565b509392505050565b600082601f830112613c6857613c67613b4c565b5b8135613c78848260208601613c11565b91505092915050565b60008060408385031215613c9857613c976137ca565b5b6000613ca685828601613962565b925050602083013567ffffffffffffffff811115613cc757613cc66137cf565b5b613cd385828601613c53565b9150509250929050565b600080600060608486031215613cf657613cf56137ca565b5b6000613d0486828701613af7565b9350506020613d1586828701613af7565b9250506040613d2686828701613962565b9150509250925092565b6000819050919050565b613d4381613d30565b8114613d4e57600080fd5b50565b600081359050613d6081613d3a565b92915050565b600060208284031215613d7c57613d7b6137ca565b5b6000613d8a84828501613d51565b91505092915050565b613d9c81613d30565b82525050565b6000602082019050613db76000830184613d93565b92915050565b60008060408385031215613dd457613dd36137ca565b5b6000613de285828601613d51565b9250506020613df385828601613af7565b9150509250929050565b613e0681613941565b82525050565b6000602082019050613e216000830184613dfd565b92915050565b600081519050919050565b600082825260208201905092915050565b6000819050602082019050919050565b613e5c81613941565b82525050565b600082825260208201905092915050565b6000613e7e8261388f565b613e888185613e62565b9350613e988185602086016138ab565b613ea1816138d5565b840191505092915050565b6000606083016000830151613ec46000860182613e53565b5060208301518482036020860152613edc8282613e73565b9150506040830151613ef16040860182613e53565b508091505092915050565b6000613f088383613eac565b905092915050565b6000602082019050919050565b6000613f2882613e27565b613f328185613e32565b935083602082028501613f4485613e43565b8060005b85811015613f805784840389528151613f618582613efc565b9450613f6c83613f10565b925060208a01995050600181019050613f48565b50829750879550505050505092915050565b60006020820190508181036000830152613fac8184613f1d565b905092915050565b613fbd81613859565b8114613fc857600080fd5b50565b600081359050613fda81613fb4565b92915050565b60008060408385031215613ff757613ff66137ca565b5b600061400585828601613962565b925050602061401685828601613fcb565b9150509250929050565b600067ffffffffffffffff82111561403b5761403a613b56565b5b602082029050602081019050919050565b600080fd5b600061406461405f84614020565b613bb6565b905080838252602082019050602084028301858111156140875761408661404c565b5b835b818110156140b0578061409c8882613af7565b845260208401935050602081019050614089565b5050509392505050565b600082601f8301126140cf576140ce613b4c565b5b81356140df848260208601614051565b91505092915050565b600080604083850312156140ff576140fe6137ca565b5b600061410d85828601613962565b925050602083013567ffffffffffffffff81111561412e5761412d6137cf565b5b61413a858286016140ba565b9150509250929050565b60006020828403121561415a576141596137ca565b5b600061416884828501613af7565b91505092915050565b600081519050919050565b600082825260208201905092915050565b6000819050602082019050919050565b6060820160008201516141b36000850182613e53565b5060208201516141c66020850182613e53565b5060408201516141d96040850182613e53565b50505050565b60006141eb838361419d565b60608301905092915050565b6000602082019050919050565b600061420f82614171565b614219818561417c565b93506142248361418d565b8060005b8381101561425557815161423c88826141df565b9750614247836141f7565b925050600181019050614228565b5085935050505092915050565b6000602082019050818103600083015261427c8184614204565b905092915050565b600081519050919050565b600082825260208201905092915050565b6000819050602082019050919050565b6142b981613859565b82525050565b600060c0830160008301516142d76000860182613e53565b50602083015184820360208601526142ef8282613e73565b915050604083015184820360408601526143098282613e73565b915050606083015161431e6060860182613e53565b5060808301516143316080860182613e53565b5060a083015161434460a08601826142b0565b508091505092915050565b600061435b83836142bf565b905092915050565b6000602082019050919050565b600061437b82614284565b614385818561428f565b935083602082028501614397856142a0565b8060005b858110156143d357848403895281516143b4858261434f565b94506143bf83614363565b925060208a0199505060018101905061439b565b50829750879550505050505092915050565b600060208201905081810360008301526143ff8184614370565b905092915050565b6000806040838503121561441e5761441d6137ca565b5b600061442c85828601613962565b925050602061443d85828601613af7565b9150509250929050565b6000806040838503121561445e5761445d6137ca565b5b600061446c85828601613962565b925050602061447d85828601613962565b9150509250929050565b600060608201905061449c6000830186613dfd565b81810360208301526144ae81856138e6565b90506144bd6040830184613dfd565b949350505050565b600060c0820190506144da6000830189613dfd565b81810360208301526144ec81886138e6565b9050818103604083015261450081876138e6565b905061450f6060830186613dfd565b61451c6080830185613dfd565b61452960a0830184613865565b979650505050505050565b6000806040838503121561454b5761454a6137ca565b5b600061455985828601613af7565b925050602061456a85828601613fcb565b9150509250929050565b6000806000806080858703121561458e5761458d6137ca565b5b600085013567ffffffffffffffff8111156145ac576145ab6137cf565b5b6145b887828801613c53565b945050602085013567ffffffffffffffff8111156145d9576145d86137cf565b5b6145e587828801613c53565b93505060406145f687828801613962565b925050606061460787828801613962565b91505092959194509250565b60006060820190506146286000830186613dfd565b6146356020830185613dfd565b6146426040830184613dfd565b949350505050565b600067ffffffffffffffff82111561466557614664613b56565b5b61466e826138d5565b9050602081019050919050565b600061468e6146898461464a565b613bb6565b9050828152602081018484840111156146aa576146a9613b51565b5b6146b5848285613c02565b509392505050565b600082601f8301126146d2576146d1613b4c565b5b81356146e284826020860161467b565b91505092915050565b60008060008060808587031215614705576147046137ca565b5b600061471387828801613af7565b945050602061472487828801613af7565b935050604061473587828801613962565b925050606085013567ffffffffffffffff811115614756576147556137cf565b5b614762878288016146bd565b91505092959194509250565b60008060408385031215614785576147846137ca565b5b600061479385828601613af7565b925050602083013567ffffffffffffffff8111156147b4576147b36137cf565b5b6147c085828601613c53565b9150509250929050565b600080604083850312156147e1576147e06137ca565b5b60006147ef85828601613af7565b925050602061480085828601613af7565b9150509250929050565b7f4e487b7100000000000000000000000000000000000000000000000000000000600052602260045260246000fd5b6000600282049050600182168061485157607f821691505b6020821081036148645761486361480a565b5b50919050565b7f496e76616c69642073657373696f6e2049440000000000000000000000000000600082015250565b60006148a060128361389a565b91506148ab8261486a565b602082019050919050565b600060208201905081810360008301526148cf81614893565b9050919050565b7f53657373696f6e206973206e6f74206163746976650000000000000000000000600082015250565b600061490c60158361389a565b9150614917826148d6565b602082019050919050565b6000602082019050818103600083015261493b816148ff565b9050919050565b7f4e487b7100000000000000000000000000000000000000000000000000000000600052601160045260246000fd5b600061497c82613941565b915061498783613941565b925082820190508082111561499f5761499e614942565b5b92915050565b60008190508160005260206000209050919050565b60006020601f8301049050919050565b600082821b905092915050565b600060088302614a077fffffffffffffffffffffffffffffffffffffffffffffffffffffffffffffffff826149ca565b614a1186836149ca565b95508019841693508086168417925050509392505050565b6000819050919050565b6000614a4e614a49614a4484613941565b614a29565b613941565b9050919050565b6000819050919050565b614a6883614a33565b614a7c614a7482614a55565b8484546149d7565b825550505050565b600090565b614a91614a84565b614a9c818484614a5f565b505050565b5b81811015614ac057614ab5600082614a89565b600181019050614aa2565b5050565b601f821115614b0557614ad6816149a5565b614adf846149ba565b81016020851015614aee578190505b614b02614afa856149ba565b830182614aa1565b50505b505050565b600082821c905092915050565b6000614b2860001984600802614b0a565b1980831691505092915050565b6000614b418383614b17565b9150826002028217905092915050565b614b5a8261388f565b67ffffffffffffffff811115614b7357614b72613b56565b5b614b7d8254614839565b614b88828285614ac4565b600060209050601f831160018114614bbb5760008415614ba9578287015190505b614bb38582614b35565b865550614c1b565b601f198416614bc9866149a5565b60005b82811015614bf157848901518255600182019150602085019450602081019050614bcc565b86831015614c0e5784890151614c0a601f891682614b17565b8355505b6001600288020188555050505b505050505050565b6000606082019050614c3860008301866139d6565b614c456020830185613dfd565b614c5260408301846139d6565b949350505050565b7f4e487b7100000000000000000000000000000000000000000000000000000000600052603260045260246000fd5b7f496e76616c696420766f74657220616464726573730000000000000000000000600082015250565b6000614cbf60158361389a565b9150614cca82614c89565b602082019050919050565b60006020820190508181036000830152614cee81614cb2565b9050919050565b6000614d0082613941565b9150614d0b83613941565b9250828203905081811115614d2357614d22614942565b5b92915050565b6000614d3482613941565b91507fffffffffffffffffffffffffffffffffffffffffffffffffffffffffffffffff8203614d6657614d65614942565b5b600182019050919050565b60006060820190508181036000830152614d8b81866138e6565b9050614d9a6020830185613dfd565b614da76040830184613dfd565b949350505050565b7f53657373696f6e20697320636c6f736564000000000000000000000000000000600082015250565b6000614de560118361389a565b9150614df082614daf565b602082019050919050565b60006020820190508181036000830152614e1481614dd8565b9050919050565b7f566f74696e6720686173206e6f74207374617274656400000000000000000000600082015250565b6000614e5160168361389a565b9150614e5c82614e1b565b602082019050919050565b60006020820190508181036000830152614e8081614e44565b9050919050565b7f566f74696e672068617320656e64656400000000000000000000000000000000600082015250565b6000614ebd60108361389a565b9150614ec882614e87565b602082019050919050565b60006020820190508181036000830152614eec81614eb0565b9050919050565b7f596f75206861766520616c726561647920766f74656420696e2074686973207360008201527f657373696f6e0000000000000000000000000000000000000000000000000000602082015250565b6000614f4f60268361389a565b9150614f5a82614ef3565b604082019050919050565b60006020820190508181036000830152614f7e81614f42565b9050919050565b7f596f7520617265206e6f7420656c696769626c6520666f72207468697320736560008201527f7373696f6e000000000000000000000000000000000000000000000000000000602082015250565b6000614fe160258361389a565b9150614fec82614f85565b604082019050919050565b6000602082019050818103600083015261501081614fd4565b9050919050565b7f596f75206d75737420686f6c6420612053747564656e74204e465420746f207660008201527f6f74650000000000000000000000000000000000000000000000000000000000602082015250565b600061507360238361389a565b915061507e82615017565b604082019050919050565b600060208201905081810360008301526150a281615066565b9050919050565b7f496e76616c69642063616e646964617465204944000000000000000000000000600082015250565b60006150df60148361389a565b91506150ea826150a9565b602082019050919050565b6000602082019050818103600083015261510e816150d2565b9050919050565b600081905092915050565b7f7b226e616d65223a202253747564656e742049443a2000000000000000000000600082015250565b6000615156601683615115565b915061516182615120565b601682019050919050565b60006151778261388f565b6151818185615115565b93506151918185602086016138ab565b80840191505092915050565b7f222c000000000000000000000000000000000000000000000000000000000000600082015250565b60006151d3600283615115565b91506151de8261519d565b600282019050919050565b7f226465736372697074696f6e223a20224469676974616c204964656e7469747960008201527f20666f722053747564656e742049442000000000000000000000000000000000602082015250565b6000615245603083615115565b9150615250826151e9565b603082019050919050565b7f2e20566572696669656420627920556e69766572736974792e222c0000000000600082015250565b6000615291601b83615115565b915061529c8261525b565b601b82019050919050565b7f2261747472696275746573223a205b7b2274726169745f74797065223a20225360008201527f747564656e74204944222c202276616c7565223a202200000000000000000000602082015250565b6000615303603683615115565b915061530e826152a7565b603682019050919050565b7f227d5d7d00000000000000000000000000000000000000000000000000000000600082015250565b600061534f600483615115565b915061535a82615319565b600482019050919050565b600061537082615149565b915061537c828661516c565b9150615387826151c6565b915061539282615238565b915061539e828561516c565b91506153a982615284565b91506153b4826152f6565b91506153c0828461516c565b91506153cb82615342565b9150819050949350505050565b7f646174613a6170706c69636174696f6e2f6a736f6e3b6261736536342c000000600082015250565b600061540e601d83615115565b9150615419826153d8565b601d82019050919050565b600061542f82615401565b915061543b828461516c565b915081905092915050565b6000615452828461516c565b915081905092915050565b7f53747564656e7420494420616c72656164792068617320616e204e4654000000600082015250565b6000615493601d8361389a565b915061549e8261545d565b602082019050919050565b600060208201905081810360008301526154c281615486565b9050919050565b7f566f74696e6753797374656d3a20536f756c626f756e6420746f6b656e20636160008201527f6e6e6f74206265207472616e7366657272656400000000000000000000000000602082015250565b600061552560338361389a565b9150615530826154c9565b604082019050919050565b6000602082019050818103600083015261555481615518565b9050919050565b600081519050919050565b600082825260208201905092915050565b60006155828261555b565b61558c8185615566565b935061559c8185602086016138ab565b6155a5816138d5565b840191505092915050565b60006080820190506155c560008301876139d6565b6155d260208301866139d6565b6155df6040830185613dfd565b81810360608301526155f18184615577565b905095945050505050565b60008151905061560b81613800565b92915050565b600060208284031215615627576156266137ca565b5b6000615635848285016155fc565b91505092915050565b600060408201905061565360008301856139d6565b6156606020830184613d93565b9392505050565b600061567282613941565b915061567d83613941565b925082820261568b81613941565b915082820484148315176156a2576156a1614942565b5b5092915050565b7f4e487b7100000000000000000000000000000000000000000000000000000000600052601260045260246000fd5b60006156e382613941565b91506156ee83613941565b9250826156fe576156fd6156a9565b5b828204905092915050565b600060408201905061571e60008301856139d6565b61572b6020830184613dfd565b939250505056fe4142434445464748494a4b4c4d4e4f505152535455565758595a6162636465666768696a6b6c6d6e6f707172737475767778797a303132333435363738392b2fa26469706673582212201677e31e2756097119a15a1d5825fe10229d571a6ca91ae5a733857076da169c64736f6c634300081c0033",
  "linkReferences": {},
  "deployedLinkReferences": {}
}